:10000000E04000208989000001CA011001CA0110E6
:1000100001CA011001CA011001CA011001CA011070
:1000200001CA011001CA011001CA011001CA011060
:0C00300001CA011001CA01103FCA0110F2
:10003C00002202F07BB950F8041B61B150F8042B7C
:10004C00D30744BFA9F101039A180023091F42F8F2
:10005C00043BFAD1EFE7704762F30F2262F31F42C1
:10006C00401810F0030308D0C91A1FD3DB0748BF90
:10007C0000F8012D28BF20F8022D130030B41446CF
:10008C001546103928BF20E93C00FAD8490728BF8B
:10009C0020E90C0048BF40F8042D890028BF20F847
:1000AC00022D48BF00F8012D30BC7047C91818BF8D
:1000BC0000F8012DCB0728BF00F8012D7047012057
:1000CC00704700000100000000000000000000006C
:0800DC0000000000010000001B
:100100003C0000000000000000000000340100007E
:1001100000000000000000000100000000000000DE
:1001200000000000000000000000000001000000CE
:0C013000000000000800000000000000BB
:10013C003400000000000000000000006801000016
:10014C0000000000000000000100000000000000A2
:10015C00010000000000000000000000080000008A
:04016C00000000008F
:1001700030000000000000000000000098010000B6
:10018000040000000000000001000000FFFFFFFF6E
:10019000FF00000001000000080000000000000057
:1001A0002C0000000000000000000000C40100005E
:1001B000040000000000000001000000FFFFFFFF3E
:0C01C000FFFFFFFF08000000000000002F
:1001CC0034050000E401000099A1011095A701106D
:1001DC00A5C2011009B2011045B8011000000000C1
:0801EC00000000002E000000DD
:1001F40028000000000000000000000014020000BD
:100204000000000000000000FFFFFFFF00000000EE
:080214000800000000000000DA
:10021C00300500003002000069C201106DC10110F0
:10022C001FC2011095BA0110000000000000000070
:04023C00300000008E
:10024000300500005402000075C20110A9B601106B
:100250009DBF011049B60110000000000000000021
:040260003100000069
:1002640024000000000000000000000080020000E4
:100274000000000000000000000000000800000072
:040284000000000076
:10028800240000000000000000000000A40200009C
:10029800000000000000000000000000080000004E
:0402A8000000000052
:1002AC00240000000000000000000000C802000054
:1002BC000000000001000000000000000800000029
:0402CC00000000002E
:1002D00000000000C807002004000000000000002B
:1002E000000000002000000070010000300000004D
:1002F0001C020000D00700200400000000000000E5
:10030000000000000C000000300400001800000095
:1003100040020000D8070020040000000000000098
:100320000000000024000000480400001800000045
:1003300000000000E00700200400000000000000B2
:100340000000000010000000A00100002C000000D0
:10035000CC010000E80700200400000000000000BD
:1003600000000000200000006402000024000000E3
:10037000FFFFFFFFF0070020040000000000000066
:100380000000000028000000880200002400000097
:10039000FFFFFFFFF807002004000000000000003E
:1003A00000000000580000003C0100003400000084
:1003B000FFFFFFFF00080020040000000000000015
:1003C00000000000100000006004000018000000A1
:1003D000FFFFFFFF080800200400000000000000ED
:1003E000000000001C000000AC020000240000001F
:1003F000FFFFFFFF100800200400000000000000C5
:100400000000000038000000F40100002800000097
:10041000FFFFFFFF1808002004000000000000009C
:100420000000000054000000000100003C0000003B
:100430001800000000000000000000004004000060
:080440000800000000000000AC
:100448001800000000000000000000005804000030
:08045800080000000000000094
:100460001800000000000000000000007004000000
:0804700008000000000000007C
:0804780001000000E48900000E
:040480000000000078
:040484000100000073
:0404880000000C0064
:04048C0000000D005F
:040490003200000036
:040494000100000063
:0404980058070020E1
:04049C00000200005A
:0404A0000000000058
:0404A40001CA011078
:0404A8000000000050
:0404AC00000000004C
:0404B0000800000040
:0404B4000000200024
:0404B8006C060020AE
:0404BC00010000003B
:0404C00070070020A1
:0404C400080000002C
:0404C8000000000030
:0404CC00000000002C
:0404D0000000000028
:0404D4000000000024
:0404D8000000000020
:0404DC00010000001B
:0404E000A40600204E
:0404E400060000000E
:0404E800010000000F
:0404EC009405002053
:0404F0000000000008
:0404F4000000000004
:0404F80000020000FE
:0404FC0000000000FC
:020500000000F9
:020502002A00CD
:020504000100F4
:020506002500CE
:020508003000C1
:02050A003100BE
:02050C002E00BF
:02050E000100EA
:0105100001E9
:0805140004000000B48900009E
:08051C000000000000000000D7
:0405240000000100D2
:0405280000000300CC
:04052C0087C401106F
:04053000380500008A
:040534003805000086
:0405380000000000BF
:04053C00800000003B
:040540008000000037
:0405440000000000B3
:040548007007002018
:04054C002B3A000046
:040550002000000087
:04055400D0000000D3
:04055800D887000040
:04055C000DC30110BA
:0405600089310000DD
:040564008B310000D7
:0405680099C801101D
:04056C009BC8011017
:040570000000000087
:040574002E23000032
:04057800808500007A
:04057C00988500005E
:04058000688500008A
:0205840008006D
:0205860009006A
:02058800010070
:02058A0000006F
:01058C00016D
:040590000000000067
:040594000000000063
:04059800000000005F
:04059C00000000005B
:0405A00085300000A2
:0405A400B93000006A
:0405A8003D2F0000E3
:0405AC00F330000028
:0405B000952F000083
:0405B400592F0000BB
:0405B8000930000006
:0405BC0041310000C9
:0405C000A939000055
:0405C400A73B000051
:0405C800AB3B000049
:0405CC000800000023
:0405D0002400000003
:0405D400180000000B
:0405D80028000000F7
:0405DC0020000000FB
:0405E0003C000000DB
:0405E4000C00000007
:0405E80034000000DB
:1005EC0070B500F033F808B9102070BD002101601F
:1005FC008480C5808660DFF8B8184A6812B94860F4
:10060C0004E00A4611680029FBD11060002070BD7F
:10061C0070B504460D461646182001F0F5FA08B9D7
:10062C00102070BD00210160816004710574466169
:10063C00DFF88018FFE70A6812B9086004E00A4680
:10064C0011680029FBD11060002070BD04460D46D6
:10065C0016460C2001F0D8BA1FB501248DF80040C5
:10066C000AB9062B01DB032901D101200FE001ABF4
:10067C001222002100F0D9FB20B1002201A900A810
:10068C0000F049FD9DF80000012818BF002004B0BF
:10069C0010BD2DE9F04F87B00646884692461C46A1
:1006AC0001F0FDFA5FEA000B08BF022030D0514682
:1006BC00304600F003FC05466806DFF8F49707D4D3
:1006CC00D9F8080020B1407E012808BF45F040054C
:1006DC000822002104A801F0A4FA109828B104996A
:1006EC00012060F30101049103E00498800880006C
:1006FC000490DBF8080050B1408800902346049821
:10070C0000F0030251463046FFF7A6FF08B901205E
:10071C006CE0139828B10499ADF8140041F0040171
:10072C0004918DF8174011980028049814BF40F0DC
:10073C00080020F00800049012980028049814BFB8
:10074C0040F0100020F010000490149804998DF8DB
:10075C001600C1F38001032001B10520159C261859
:10076C00B0B201F051FA07003ED0049800F003003B
:10077C0038700499C1F3800140EA81003870049903
:10078C00C1F3C00140EAC10038700499C1F30011F3
:10079C0040EA01103870781C0499C1F3800141B112
:1007AC00BDF8141000F8011BBDF81410090A00F86C
:1007BC00011B22469DF8161001709DF81710417010
:1007CC00801C169901F037FA1E200390029509F14E
:1007DC000C0001900097B3B252465946404601F0C6
:1007EC006EFA00F090F800E0102420466BE02DE942
:1007FC00F04F87B00446884693461F4600250026D6
:10080C0007E002885946204600F0B7FC4519ADB206
:10081C00761C3878F6B2864210D207EBC600001D63
:10082C00ED1C81780029ADB2F2D141686D1C002914
:10083C00ADB2E6D0C07800F05AFCE7E7284601F0EC
:10084C00E3F95FEA00093CD0CA4600260BE001A997
:10085C000091534602885946204600F0A2FCBDF890
:10086C0004008244761C3878F6B286421BD207EB21
:10087C00C60030F8041F0AF8011B0188090A0AF89F
:10088C00011B81780AF8011B81780029EAD1C17813
:10089C000AF8011B41680029D9D0C078524600F0F3
:1008AC0021FB8246DEE7CDF81890059501231298BE
:1008BC0004905A4600F0D4F80446484601F0C5F9B5
:1008CC0000E01024204607B0BDE8F08F2DE9F0437E
:1008DC001D4687B000F072F807000FD000F05AF8F0
:1008EC00012A02BFA878002801260697B6B2059601
:1008FC00042300F03CF800F006F800E01024204639
:10090C0007B0BDE8F0830446384601F09EB92DE9E6
:10091C00F0431D4687B004462878860000F035F871
:10092C00070022D0002110E005EB8102491C9378CE
:10093C0000F8013BC9B2D37800F8013B938800F86A
:10094C00013B9288120A00F8012B2A789142EBDBCA
:10095C00012A02BFA87800280126069705960723CE
:10096C0000F005F8FFF7CFFF00E01024C7E7109860
:10097C0004904A460020039041460F9802900E982E
:10098C00019000200090204683E688469146304630
:10099C0001F03AB900210DE005EB8102491C937876
:1009AC0000F8013BC9B2938800F8013B9288120A07
:1009BC0000F8012B2A789142EEDB70470446287828
:1009CC0000EB400688469146B0B201F01DB93046A6
:1009DC0001F03BB92DE9F04788B000F04CF803E08A
:1009EC0000F028F8C01C86192878FFB28742F7D38C
:1009FC00B0B201F009F95FEA000A16D0002701E055
:100A0C0000F01FF82978FFB28F42F9D3CDF818A067
:100A1C00B6B205960A23129804904A4600F020F8C4
:100A2C000446504601F011F900E01024204608B0AD
:100A3C00BDE8F08705EBC700001D7F1C416880787E
:100A4C0055E305EBC7010B1DC21C198801707F1CF7
:100A5C001988090A4170997881709878596841E22F
:100A6C0000200390414611980290109801900020AC
:100A7C00009020460DE60446884691461D46002609
:100A8C000027704710B588B01C788DF81C405B7837
:100A9C008DF81D3007AB0693022305930D9B049331
:100AAC000C9B03930B9B02930A9B019300230093D3
:100ABC000B23FFF7EEFD08B010BDF0B50746002480
:100ACC00F88C03288BB0B8BF01201BDBDFF8E05398
:100ADC000597AF600A940894ADF8244006A8B96A4B
:100AEC0000F062F90890F98C081AB96A0818ADF888
:100AFC0024009DF81E002870387D01F0D0F810B944
:100B0C00A8600220F2E0806860B140889DF81F3038
:100B1C0000909DF81800B98800F00302387DFFF7AB
:100B2C009BFD10B9AC600320E0E0B988387D00F083
:100B3C00C5F9B9886B6800E01B68002B43D09E8810
:100B4C00B14224BFDE888E42F6D39DF8182012F0F5
:100B5C00070F04BF9DF81F200B2A34D0400632D556
:100B6C00787E80BB0598407D002802BF05984088A0
:100B7C00002825D1387D002200F0A6F901208DF83F
:100B8C00110004AB9DF81F008DF810009DF81E009D
:100B9C000390BDF81C000290012001900698C0083B
:100BAC0080F0010000F00100009005988288811D02
:100BBC00007DFFF767FFB988387D012200F084F9CA
:100BCC00AC60052092E0069810F0030F43D1C0F3FF
:100BDC00800008B1842653E09DF81F00172838DAEE
:100BEC000FF20C1656F83010080032D0387D8DF804
:100BFC000000BDF82400ADF802000898019000A890
:100C0C0088470A9068B19DF81F0006EBC000416848
:100C1C00080003D005A888470A9810B10A9801F07B
:100C2C0014F89DF81F00002818BF02281CD00328B8
:100C3C0018BF062818D0082818BF0C2814D0112863
:100C4C0018BF132810D0152818BF0B280CD000265D
:100C5C0016E0822614E063B19968080009D005A853
:100C6C008847FF28064602D10020A8603EE00128F4
:100C7C0006D10698C0F38000002814BF8326812675
:100C8C000598407D002802BF0598408800281FD198
:100C9C000698C0F30011D9B99DF81F108DF81010EB
:100CAC00C0089DF81E10039180F00100BDF81C10C7
:100CBC00029100F001000090012105988DF811605F
:100CCC000191811D8288007D04ABFFF7DBFE0124BE
:100CDC000020A86056B1842E04D1002C0CBF062035
:100CEC00072003E0002C14BF092008200BB0F0BD36
:100CFC008512000083170000B9120000071C0000C9
:100D0C007B130000491800007B1300002919000018
:100D1C00E3130000071C00007B13000049180000BF
:100D2C0029140000071C00001B150000071C000004
:100D3C004B150000071C000095150000071C000057
:100D4C009F160000071C00006D170000071C000018
:100D5C000000000000000000000000000000000087
:100D6C000000000000000000000000000000000077
:100D7C000000000000000000000000000000000067
:100D8C000000000000000000000000000000000057
:100D9C000000000000000000000000000000000047
:100DAC00000000000000000038B50D460446082283
:100DBC00002100F036FF2878216860F301012160E2
:100DCC0021F00401287840074CBF04200020084380
:100DDC002060297809074CBF40F0080020F008007B
:100DEC00206028782168C0064CBF1020002021F01C
:100DFC00100108432060691CC0F3800028B10878FA
:100E0C004A7800EB0220A080891C0878A0714878F1
:100E1C00E071881C32BD2749096821B10A798242E8
:100E2C00FAD10846704700207047F8B50C461546B5
:100E3C001E46FFF7F0FFA8B14269002101E0491CF2
:100E4C00C9B2037C99420DDA0C234B439F5AA7423B
:100E5C0002BF9F18BF88AF42F1D198180EC80EC6BA
:100E6C000120F2BD0020F2BD80B5FFF7D4FF00B128
:100E7C00806802BD80B5FFF7CEFF00B1C06802BD2F
:100E8C0030B50D4A12688AB113798342FAD1002326
:100E9C0000E05B1C5479DBB2A342F3D2946834F8C3
:100EAC0023508D42F5D104EB830030BD002030BDC2
:100EBC00402A0020842A0020882A002080B5FFF7D1
:100ECC00DFFF00B1807802BD10B51446FFF7D8FFE4
:100EDC0038B18178002C14BF41F0400101F0BF0102
:100EEC00817010BD03460029104600F08080082B4D
:100EFC0051D0092B51D00A2B55D00B2B5FD0102B76
:100F0C0018BF182B47D0192B47D01A2B4BD01B2BA3
:100F1C0055D0202B3FD0212B3FD0222B43D0232B3D
:100F2C004DD0242B4ED0252B4ED0262B4ED0272BFC
:100F3C004ED0282B2FD0292B2FD02A2B33D02B2B34
:100F4C003DD02C2B3ED02D2B3ED02E2B3ED02F2BFC
:100F5C003ED0302B1FD0312B18BF382B1DD0392B46
:100F6C002DD03A2B34D0412B18BF422B32D0432BEF
:100F7C0018BF442B31D0E02B1CBFE12BE22B1ED031
:100F8C00E82B18BFE92B08D0EA2B18D0F02B1FD078
:100F9C00F12B29D0704709780EE00A8800F8012B54
:100FAC000988090A08E00A6800F8012B0A68120A85
:100FBC0000F8012B0968090C00F8011B704709683F
:100FCC0000F053BE052210E006220EE007220CE0D2
:100FDC0008220AE00A78521C07E00A784B7802EBE8
:100FEC00032292B2921C00E0102200F024BE704743
:100FFC0020380F2881BF18380228A838022801D8B9
:10100C00012070470020704738B50C46154600F09B
:10101C006EF80121ADF80010002203E015F8013B39
:10102C0013558A180346581E002BF7D131BD0828DA
:10103C0049D0092849D00A2849D00B2849D0102872
:10104C0018BF18283FD019283FD01A283FD01B288A
:10105C003FD0202837D0212837D0222837D023283A
:10106C0037D0242837D0252837D0262837D0272822
:10107C0037D0282827D0292827D02A2827D02B2832
:10108C0027D02C2827D02D2827D02E2827D02F2822
:10109C0027D0302817D0312818BF382815D0392838
:1010AC0017D03A281DD0E0281CBFE128E22810D028
:1010BC00E82818BFE92808D0EA280AD0F02810D070
:1010CC00F12810D011E00120704702207047032056
:1010DC007047042070470520704706207047072092
:1010EC00704708207047102070470020704780B56B
:1010FC00442818BF432805D10878497800EB012013
:10110C00801C06E0422813BF41280878401CFFF7DA
:10111C008EFF80B202BDF8B50D460446A96816468E
:10112C0009B90120F2BDA879FFF7E1FF0746A968CC
:10113C003A46204600F07FFD06B137800020F2BD14
:10114C00F0B585B01F4604460D46164601ABFFF7B9
:10115C006CFE08B901200EE00A9A039820B101A98F
:10116C003846FFF7D8FF06E000923B463246294648
:10117C00204600F016F805B0F0BD7CB50C460021F9
:10118C00ADF804101546FFF76FFE060006D001A857
:10119C0000900023002229462046B047BDF80400E9
:1011AC0076BDF8B50C4615461E46FFF75DFE0746A4
:1011BC00069808B100210180390006D00090334612
:1011CC00012229462046B847F2BDC120F2BD70B5B8
:1011DC0014461D46E279920718D5224600F039F8DC
:1011EC00060014D10B480268100003D02946204693
:1011FC00904748B16968A079FFF779FF02466968A2
:10120C00A06800F018FD02E0872600E08826304632
:10121C0070BD0000802A002070B515460446E879A0
:10122C00800782B01E4612D5204600F012F878B91D
:10123C002046FFF719FE040007D00020009033462B
:10124C00A98828880222A04776BDC12076BD8820B7
:10125C0076BD38B515460C46E97989060AD5FFF7EF
:10126C0009FE030006D02946204601B0BDE83040F7
:10127C0002221847002032BD38B5054668886C68D4
:10128C0000F04CFC88B1698849080170002108E025
:10129C002278637802EB032200EB4103A41C5A80F2
:1012AC00491C0278C9B29142F2D332BD2DE9F04704
:1012BC0005464FF000086E68C24613E0B07808F19E
:1012CC000108F61C70B916F8010B00F082F8044600
:1012DC00A6194008B4EB40001CBF641CA4B2A24485
:1012EC001FFA8AFA6868698808188642E6D34FEABA
:1012FC00C800041DE4B20AEB040000F010FC5FEA25
:10130C00000A31D06E688AF8008004EB0A054FF0B1
:10131C00000923E00AEBC900071D3078717800EB57
:10132C0001203880B078B870F61CA8B916F8010BFB
:10133C00F87000F04EF8044622463146284600F07C
:10134C007AFC04EBD470A61940087D60B4EB400025
:10135C001CBF641CA4B2651909F101095FFA89F973
:10136C005FFA88F8C145D5D35046BDE8F0872DE922
:10137C00F047074600257968A84609E000F027F8F1
:10138C0000F0E1F91CBF641CA4B2A0441FFA88F859
:10139C0078687A8810188142F0D300F0ACF900F02C
:1013AC00BEFB5FEA000811D000F0ABF90AE000F0D8
:1013BC00B9F900F0CFF900F0ABF91CBF641CA4B272
:1013CC00E719761CF6B2EDB2AE42F0D390E1887814
:1013DC00CE1C31468BE670B50546002468886E68D5
:1013EC0000F09CFBC8B16988012910D1317881705B
:1013FC00012411E0E4B200EB840116F8012B8A7091
:10140C00641C3278737802EB03228A80B61C6968FC
:10141C006A8851188E42EDD3047070BD2DE9F843E3
:10142C0007464FF000087C68C14600E0641D7868F0
:10143C0079880818844218D22078002808F101080D
:10144C00F4D1E5782846FFF7D3FD083458B1284687
:10145C00FFF7EDFD0419C10748BF401CC0B248445A
:10146C001FFA80F9E3E7641CE1E700F00BF900F0E8
:10147C0056FB5FEA000949D07C6889F8008005EBCF
:10148C000907002506E00178427801EB0221718101
:10149C00841C6D1CEDB25FFA88F8454536D209EB19
:1014AC000510061D10220021304600F0BAFB2178F1
:1014BC003170601C02784378801C02EB03220029F7
:1014CC007280E0D110F8011B31714278017801EB88
:1014DC000221F18010F8021F427801EB02213181C8
:1014EC00841C3079FFF784FD0028D2D03079224655
:1014FC003946FFF789FDF7603079FFF798FD04193D
:10150C00C10748BF401CC0B2C719C2E7B7E038B525
:10151C004468408885052D0EA80000F0FFFA68B1DC
:10152C000570002107E000F028F814F8013BD37097
:10153C00C9B200F01BF802789142F4DB32BD38B529
:10154C0044684088032190FBF1F5EDB2A80000F04F
:10155C00E5FA50B10570002104E000F00EF800F03F
:10156C0005F8C9B202789142F7DB32BD2378657871
:10157C0003EB05239380A41C704700EB810214F845
:10158C00013B9370491C70472DE9F84306464FF018
:10159C0000087468C14600E0A41C706871880818C3
:1015AC0084421CD214F8010B14F8031B002808F118
:1015BC000108F2D10029EFD114F8055B2846FFF79A
:1015CC0017FD0028E9D02846FFF731FD0419C107A3
:1015DC0048BF401CC0B248441FFA80F9DDE700F058
:1015EC0051F800F09CFA5FEA000948D0746889F859
:1015FC00008005EB0906002506E02078617800EBF9
:10160C0001207881A41C6D1CEDB25FFA88F8454569
:10161C0035D209EB0510071D20783870A21C6178B3
:10162C0079701378547803EB0423941C00287B8086
:10163C00E9D10029E1D114F8010B387161782078D7
:10164C0000EB0120F880A01C0178427801EB02210C
:10165C003981841C3879FFF7CBFC0028D3D038793A
:10166C0022463146FFF7D0FCFE603879FFF7DFFCED
:10167C000419C10748BF401CC0B28619C3E74846CD
:10168C00BDE8F2834FEA0810051DEDB209EB050029
:10169C0070472DE9F047074600257968A84609E010
:1016AC00FFF795FE00F04FF81CBF641CA4B2A044D9
:1016BC001FFA88F878687A8810188142F0D300F005
:1016CC001AF800F02CFA5FEA000811D000F019F8B3
:1016DC000AE000F027F800F03DF800F019F81CBF04
:1016EC00641CA4B2E719761CF6B2EDB2AE42F0D38C
:1016FC004046BDE8F087E800041DE4B208EB0400A6
:10170C007047796888F8005004EB0807002670478A
:10171C0004EBD4704008C9F8047004EB0A01B4EB74
:10172C004000704708EBC60000F1040908784A78BD
:10173C0000EB0220A9F8000001F1030A887889F86F
:10174C0002005146D3E404466D1CA1194008B4EBC9
:10175C0040007047044622465146384600F06BBAAA
:10176C0010B54468022000F04FFA18B121780170CE
:10177C006178417010BD2DE9F043044687B065696E
:10178C002878C000001D00F0CAF95FEA000808BF05
:10179C00002051D0287888F80000002703E086202C
:1017AC00B0707F1CFFB2287887422FDA08EBC70095
:1017BC0005EB4701061D4888308003AB20684A883A
:1017CC008188007DFFF731FB0028E8D09DF81300DD
:1017DC00C10719D52168C00601F1060909D5087D94
:1017EC00FFF748FB030004D0012203A948469847A1
:1017FC0000E00020B070B0780028D2D1059870605D
:10180C009DF81200F070CCE78F20C9E72068A17A10
:10181C0002914346012101916168C90881F00101DF
:10182C0001F001010091811D8288007DFEF7DFFF30
:10183C00404600F00AFA0120FFF762B82DE9F04F9C
:10184C00044685B0606900900027E07A0228BA4609
:10185C0008D1009800F060F95FEA000908BF002089
:10186C0053D00127D04607E027B18620B070DA4666
:10187C002888B08008F101085FFA88F80098007891
:10188C0080452DD2009800EBC80000F041F801AB68
:10189C00FFF7CBFA5FFA8AFA002809EB8A060AF1FD
:1018AC00010BE1D0A8789DF80A10884214D1206869
:1018BC00039931B1811D007D2B4601AAFFF787FCEE
:1018CC0005E0811D6B68007D01AAFFF7A5FC002FC8
:1018DC0018BF0028CED0C9E7002FCBD08D20C5E78C
:1018EC0097B189F800A099F8000020B989F8020096
:1018FC00012089F800002068A17A02914B4600F083
:10190C00FDF8484600F0A1F9012005B0BDE8F08FC4
:10191C00051D206881882A88007D70472DE9F04FCD
:10192C00044687B0606901904FF0000800F0F4F8AD
:10193C000600C14608BF002033D0CA460EE0FFF7B0
:10194C00E8FFFFF71AFCADF80C0000F0CBF84044B0
:10195C001FFA80F80AF101005FFA80FA019800780A
:10196C0082450EDA019800EBCA00FFF7D1FF04ABF9
:10197C00FFF75BFAB0B98620B0704FF001092888E8
:10198C00B08086F800903078002840F0A08008EBFA
:10199C00C90000F0C4F85FEA00081AD1FFF717F885
:1019AC0000209DE09DF81600A978814201D08D2081
:1019BC00E2E79DF817108A0701D48820DCE7890636
:1019CC0001D57E20D8E706990029B8D0FFF78FFB08
:1019DC00B9E708EBC9054FF0000A06E000F082F801
:1019EC0045190AF101005FFA80FA019800788245E6
:1019FC0063DA019800EBCA00071D206881883A88D9
:101A0C00007D04ABFFF711FA002808EBCA0B54D089
:101A1C003888ABF80000CBF80450069860B103AAE4
:101A2C0004A92846FFF777FB2068811D007D3B4603
:101A3C0004AAFFF7CCFB0FE0206803A900912B460A
:101A4C0081883A88007DFFF7ACFB20687B68811D9C
:101A5C00007D04AAFFF7E0FB0028BFD006EB89014C
:101A6C0009F10109887000253888888007E0206812
:101A7C007B68811D007D00AAFFF7CEFB6D1CE8B2D0
:101A8C0050451AD220688188007DEDB208EBC5075D
:101A9C0000AB3A88FFF7C9F978B1DDF808B0BBF1B3
:101AAC00000FE4D079689DF80600FFF720FB024692
:101ABC007968584600F0BFF8E0E786F80090307877
:101ACC0010B9B07001203070404600F0BEF82068AC
:101ADC00A17A0291334600F011F8FEF778FF01204D
:101AEC00FEF7F1BEBDF80C00C00704D5BDF80C0024
:101AFC00401CADF80C00BDF80C00704701210191A1
:101B0C006168C90881F0010101F001010091811D9A
:101B1C008288007DFEF7DABE00788000801C80B2DF
:101B2C0000F072B8F0B589B00022DFF8603303EB37
:101B3C00C204656885BB05AD00260027B446A5E840
:101B4C00C01023F8320061600A788DF800208A6892
:101B5C005388ADF802309388ADF80430927902F0D6
:101B6C000F028DF806208A68D2798DF807208A68D2
:101B7C0093680293127B8DF80C208A681269049288
:101B8C0009788DF814108DF81C6000A9069105A930
:101B9C0000F0F4FA012003E0521C052AC7DB0020F8
:101BAC0009B0F0BDDFF8E81208607047DFF8E41206
:101BBC000860704710B5DFF8E042214600F09CFA4F
:101BCC00204610BD10B5A6B004461DA82021FEF776
:101BDC002FFA00A87421FEF72BFA01208DF88F0044
:101BEC0000AA1DA9204600F06DFA9DF8630026B0EE
:101BFC0010BDDFF8A81208607047A64909680A00F2
:101C0C0018BF084701207047E0B50821ADF8001057
:101C1C000190042100F023F808B100200EBD0298B9
:101C2C000EBD10B5044610460A4601462046FEF786
:101C3C0013FA204610BD03E011F8013B00F8013BFC
:101C4C0013465A1E002BF7D1704700B583B00821FC
:101C5C00ADF800100190052100F001F807BDADF8BA
:101C6C00021000A88E490968084701700A0A4270E0
:101C7C000A0C090E8270C170001D70470021834A46
:101C8C0002EBC1035B682BB11B78984202D132F88E
:101C9C0031007047491C0529F2DB002070470022F7
:101CAC007A4901EBC201496821B10B78984201D104
:101CBC0008467047521C052AF2DB00207047F0B52D
:101CCC008BB007460C4615461E46282100A8FEF789
:101CDC00AFF9387A8DF80000032806D1082239466E
:101CEC000DF1020000F0E2FA03E010B13888ADF813
:101CFC000200787A8DF80A007889ADF80C001298F9
:101D0C00810744BF01218DF81910C10644BF012180
:101D1C008DF81A10010744BF01218DF81B108106A4
:101D2C0044BF01218DF81C10410644BF01218DF8E0
:101D3C001D10000644BF01208DF81E0020788DF880
:101D4C001400ADF81650119800788DF81800ADF805
:101D5C00206013988DF81F00109809902078FFF7D9
:101D6C008DFF00A900F010FA0BB0F0BDF0B585B0F6
:101D7C0004460E4617461D46FFF791FF00281CBF70
:101D8C008068002800D00EB9022016E03188ADF82A
:101D9C000010ADF802704088ADF804008DF80650C4
:101DAC000A9802900B988DF80C000C980490204621
:101DBC00FFF764FF00A900F0F1F905B0F0BD80B5A4
:101DCC0036480368180001D001200BE0082002BD42
:101DDC0080B532480368180002D00022002001E0D0
:101DEC00082002BD9847002002BD80B58DF8022066
:101DFC0001228DF8032001B927490988ADF800109C
:101E0C00FFF73CFF00A900F0DBF901BD80B5002114
:101E1C00ADF80010FFF732FF00A900F09DF901BDED
:101E2C002DE9F04387B081460E4614461D46FFF758
:101E3C0025FF194F80463888ADF800000822B91CE0
:101E4C000DF1020000F032FA8DF80A90307A8DF81C
:101E5C000E003088ADF810008DF81840B889ADF838
:101E6C001A00002000E0401CA842FCDB0E98008801
:101E7C00ADF80C0000A9404600F096F907B0BDE89B
:101E8C00F0830548008870470000000054290020AA
:101E9C008C2A0020942A002034070020902A00204D
:101EAC00A4070020E0B500F00EF8022100F02CF899
:101EBC0008B100200EBD02980EBD00B583B000F035
:101ECC0002F803211DE00821ADF8001001907047C5
:101EDC001FB5ADF80610ADF804000824DFF8EC12BD
:101EEC008DF808200393ADF80040ADF8024000A82F
:101EFC000968884704B010BD00B583B0FFF7E3FF55
:101F0C00052100F001F807BDADF8021000A8DFF8BC
:101F1C00BC120968084730B585B0144608220291F6
:101F2C00ADF800201922DFF8A41209680190ADF871
:101F3C0002201D4600A8884714B1BDF80C10218062
:101F4C0015B1BDF80E102980089A0499116005B0DE
:101F5C0030BD2DE9FC4180460E4617461846FFF76A
:101F6C00A1FF102504001ED0267000206070676051
:101F7C002346002230214046FFF7AAFF88B9019082
:101F8C0001A800900023089900F0D9F808B96578E9
:101F9C0007E0022808BF302503D001280CBF3125EB
:101FAC00012500F08DF82846BDE8F6812DE9F043B7
:101FBC0083B081460A980E4617469846FFF772FF83
:101FCC001025040020D02670002060706760C4F8D3
:101FDC0008802346002230214846FFF779FF88B954
:101FEC00019001A8009000230B9900F0A8F808B903
:101FFC00657807E0022808BF302503D001280CBF04
:10200C003125012500F05CF82846BDE8FE831178E7
:10201C00481E8041C00F70471078032801D1012061
:10202C007047002070471078042801D101207047B8
:10203C00002070471078082801D10120704700203B
:10204C0070471078102801D101207047002070478C
:10205C001078142801D101207047002070471078A7
:10206C00202801D1012070470020704710782228C9
:10207C0001D1012070470020704710782C2801D125
:10208C00012070470020704710783B2801D10120B7
:10209C007047002070471078412801D1012070470B
:1020AC00002070471078432801D101207047002090
:1020BC00704780B5DFF8182100F06CF800210FE0B4
:1020CC002046FAE600B583B0DFF8083100F050F88E
:1020DC00032108E080B5DFF8002100F05BF8042153
:1020EC00FFF737FF02BDFFF761FF0EBD0190002324
:1020FC0001A8009000227047F0B5054683B00E464B
:10210C000820FFF7CFFE1027040016D0082000F09F
:10211C001AF880B9FFF7EAFFDFF8C01000F010F8EA
:10212C0008B9677807E0022808BF302703D00128D8
:10213C000CBF31270127FFF7C3FF3846FEBD002235
:10214C004FF0FF30E7E62070666000206070234699
:10215C00002230212846BBE680B5214A00F01AF84F
:10216C001021BDE780B51F4A00F014F81421B7E721
:10217C0001930C23009313460A46704780B51A4A04
:10218C0000F008F82021ABE780B5184A00F002F8FF
:10219C002221A5E7009208230A46704780B5144A0D
:1021AC00FFF7F8FF2C219BE780B5124AFFF7F2FFEF
:1021BC003B2195E780B5104AFFF7ECFF41218FE7F3
:1021CC0080B50E4AFFF7E6FF432189E7A4070020FC
:1021DC001B200000252000003320000041200000BF
:1021EC004F2000005D2000006B20000079200000D3
:1021FC008720000095200000A3200000B1200000E3
:10220C0038B5044601252078482847D060283FD0AF
:10221C0061283DD0622818BF63283FD064282FD096
:10222C00652833D0662831D068282FD06A2818BF8B
:10223C006B2833D06C2818BF6D282FD06E2825D072
:10224C006F2823D0702821D071281FD072281CBF72
:10225C007328742822D075281AD080280ED0812893
:10226C0018BF84281AD0862818BF912816D0922817
:10227C0010D0952818BF962810D012E0A0680AE05C
:10228C00606908B1FFF738FEE06904E0E06802E03D
:10229C00606900E0E06A08B1FFF72EFEFFF710FF5F
:1022AC0000E00025284632BD0000000062B38B0719
:1022BC0008D0521E11F8013B00F8013B00F02480BD
:1022CC008B07F6D1830740F0208000BF103A07D36C
:1022DC0030B4B1E83810103AA0E83810F9D230BC5C
:1022EC00530724BFB1E80810A0E8081044BF51F808
:1022FC00043B40F8043BD20724BF31F8022B20F8F2
:10230C00022B44BF0B7803707047083A07D3B1E82F
:10231C000810083A40F8043B40F804CBF7D25307B6
:10232C00E4E7000062F30F2262F31F4200B500BF26
:10233C00130096469446103928BFA0E80C50FAD8E2
:10234C005FEA417C28BF0CC048BF40F8042BC9078A
:10235C0028BF20F8022B48BF00F8012B00BD00005D
:10236C00DFF800F0C1C20110DFF800F0F5C0011079
:10237C00DFF800F049BA0110DFF800F025C20110B7
:10238C00DFF800F0E3BF0110DFF800F0D5C001105A
:10239C00DFF800F095C00110DFF800F00DA8011077
:1023AC00DFF800F0BDBE0110DFF800F02DBF01100A
:1023BC00DFF800F013C10110DFF800F0D5C20110F6
:1023CC00DFF800F0D9C20110DFF800F0E1B5011020
:1023DC00DFF800F021C10110DFF8A800007D704784
:1023EC002DE9F041DFF89800DFF89C400768EFF327
:1023FC00118887F31188A0680121FFF7C9FF01211B
:10240C00A1830021E183656921682268461B801A3B
:10241C00691A884205D20020A08388F31188BDE890
:10242C00F08188F3118800204519361A29460120BD
:10243C00FFF7B2FF8642F7D2EFF3118887F31188CA
:10244C00E18B012903D129460020FFF7A5FFA169E3
:10245C0010F1010F08BF084603D0801B814238BF22
:10246C0008464119FFF79CFF012020840020A0831F
:10247C00256088F31188BDE8F081808A70470000E0
:10248C00DC890000A40100207801002000F078BE57
:10249C007047FEE710B582B0042001F01AF902284B
:1024AC0018BF03282AD1032000901C234FF0405260
:1024BC000021DFF8680801F004FADFF86408DFF89F
:1024CC0064280168EFF3118081F311880421B1FABB
:1024DC0081F1C1F11F010423895CB3FA83F3C3F1C9
:1024EC001F034C1E9C5405D1DFF82C180A6822F0EF
:1024FC0004020A6080F3118802B010BDDFF82808CE
:10250C00DFF8141800684418DFF82018DFF8F00919
:10251C000968B0FBF1F12046FFF722FF204602B01C
:10252C00BDE81040FFF72CBF10B5DFF8E008DFF86E
:10253C00E0480078DFF8DC0801688908890041F080
:10254C000101016001F0D2F801F071F9DFF8C8184F
:10255C000020206002200968C9688847DFF8BC08A1
:10256C000168490849000160D4F8EC0FDFF8B007A6
:10257C000168EFF3118081F31188DFF89C170A686A
:10258C0042F004020A600421B1FA81F1C1F11F0189
:10259C00DFF890278B5C5B1C8B5480F311884FF019
:1025AC00FF3010BDDFF870070079704701F0B3B849
:1025BC0030B5DFF86C07006881B0EFF3118580F35C
:1025CC001188DFF85407C0880124012808D10023A2
:1025DC0001223421DFF8440701F096F900B90024F8
:1025EC0085F31188204601B030BD000030B4DFF80F
:1025FC003017DFF830370A68EFF3118182F3118856
:10260C00B0FA80F2C2F11F02D25CB0FA80F4C4F1CD
:10261C001F04551EE55405D1DFF8FC26136823EA88
:10262C000000106081F3118830BC70472DE9F04137
:10263C00DFF8EC160968EFF3118481F31188DFF8E9
:10264C00C418425C531E435446D1DFF8C41801EB46
:10265C0080052E786F8830061AD5DFF8B888D8F840
:10266C000010096A38468847D8F80010896A38463D
:10267C008847D8F80010096B38468847DFF83816B9
:10268C0001200860DFF8340601688907FCD516E0E4
:10269C00700606D5DFF8801851F8271000208847FF
:1026AC000DE0DFF87088D8F8001089693846884743
:1026BC00D8F80010496B384688470228F8D106F044
:1026CC003F003F2818BFFFF7B1FF687800F03F00CC
:1026DC003F2818BFFFF7AAFF84F31188BDE8F081EB
:1026EC0010B508B1140001D1032010BD8160C26087
:1026FC0003610146DFF82428DFF81C061268101865
:10270C00FFF752FE002010BDF0B50446DFF81006AE
:10271C00DFF8F017006881B0EFF3118580F31188B2
:10272C00625C531C6354002A42D1DFF8E41701EBBE
:10273C008407387800F03F003F2818BFFFF7E4FF0C
:10274C00787800F03F003F2818BFFFF7DDFF38789E
:10275C007E88010617D5DFF8BC773968C969304621
:10276C0088473968496A304688473968C96A3046AB
:10277C008847DFF8441501200860DFF84005016840
:10278C008907FCD514E0400606D5DFF88C1751F804
:10279C002610012088470BE0DFF878773968496903
:1027AC00304688473968496B304688470128F9D14B
:1027BC0085F31188204601B0BDE8F04001F0DAB98C
:1027CC00DFF85C150A68EFF3118182F31188DFF8EA
:1027DC004825136803431360B0FA80F0C0F11F0062
:1027EC00DFF84025835C5B1C835481F311887047B0
:1027FC002DE9F04F002400252146012885B089469B
:10280C0018BF022440F03082DFF81405DFF8088589
:10281C000268EFF3118082F3118898F80420012AE2
:10282C0006BF022288F80420012180F3118809B127
:10283C00062419E2FFF798FD0290DFF8E006006825
:10284C0040440090FFF7B4FD10BB009E3046FFF7EC
:10285C00B3FD0746387AC00714D53969FA680120E8
:10286C009047C0B201280DD1DFF8B406006880474C
:10287C00012088F804000298FFF77AFD022005B0C9
:10288C00BDE8F08F3846FFF79BFD0746B742E1D114
:10289C00FFF77AFDDFF8E81603900C60012000F0DA
:1028AC0018FF012803D1002001F044F90124DFF8BE
:1028BC007C66DFF850763168896800208847DFF83D
:1028CC0068060068787C00B10125387C08B145F0B9
:1028DC000205F87B08B145F00405F87A28B1B16A15
:1028EC00DFF82C06096BC08D8847B87A28B1B16A1D
:1028FC00DFF81C06096B408D8847DFF8BC13DFF846
:10290C0024B60120086045F02000B16A8969884727
:10291C00DFF8700600880190012821D1DBF8340122
:10292C00C00703D4DBF88801400713D5DBF824017A
:10293C0040084000CBF82401DBF87C014008400043
:10294C00CBF87C01DBF83401C007FBD4DBF8880141
:10295C004007F7D4DBF8240140F00100CBF8240148
:10296C00DBF8000040F00100CBF8000098F8000004
:10297C00C00748BF4FF001091BD4B16CDFF86C06DF
:10298C00896888478246BAF1040F08D1B16CDFF828
:10299C005C06896888478246BAF1040FF6D0B16AA2
:1029AC00096C10208847B26CDFF84006526803218E
:1029BC009047002001F00AF9DFF86C0500680198D7
:1029CC0001283AD1DBF83401C00703D4DBF88801C5
:1029DC004007F7D5DFF8180607210160DFF8141659
:1029EC000A689200FCD540F2012101600122DFF857
:1029FC0008164A6003220A601122CA6001224A604A
:102A0C004FF45172CA6001224A6040F21162CA60EE
:102A1C0001224A6000210160DBF82401DFF8541622
:102A2C0040084000CBF8240140F604600860B16A0D
:102A3C00496B012088470228F9D1B06A806B804726
:102A4C000198012822D1DBF83401C00703D4DBF84C
:102A5C008801400714D5DBF8240140084000CBF86E
:102A6C002401DBF87C0140085FEA4000CBF87C01D4
:102A7C00DBF83401C007FBD4DBF888014007F7D43E
:102A8C00DBF8240140F00100CBF82401B9F1000F70
:102A9C0009D1B26CDFF85405526851469047B16ABF
:102AAC00C96B102088473168DFF8FC9589680120D4
:102ABC00884700BFD9F800008006FBD514B101206F
:102ACC0001F038F8B06A41690198012809D16C0805
:102ADC0060008847B16A496B600088470128F9D1CA
:102AEC0007E028468847B16A496B28468847012881
:102AFC00F9D1F87A28B1B16ADFF81404C96AC08D2B
:102B0C008847B87A28B1B16ADFF80404C96A408DE5
:102B1C008847694901200860DBF800004008400044
:102B2C00CBF800005FF0030088F80400D9F800002F
:102B3C008006FBD50198012840F04180DBF8340178
:102B4C00C00703D4DBF888014007F7D5DFF8A004F1
:102B5C0007210160DFF89C140A689200FCD540F252
:102B6C00012101600122DFF890144A6003220A60FF
:102B7C004FF44172CA6001224A601022CA600122DD
:102B8C004A604FF4C262CA6001224A6000210160AF
:102B9C00DBF82401DFF8DC1440084000CBF82401FA
:102BAC0040F604600860E80709D5B16A496901205C
:102BBC008847B16A496B012088470128F9D10098F0
:102BCC00FFF7F6FBC8B9009C2046FFF7F5FB05465E
:102BDC00287A40070BD52969EA6804209047C0B2CF
:102BEC00012804D1DFF838030068804705E0284647
:102BFC00FFF7E6FB0546A542EAD1DFF88413012076
:102C0C0008600024DFF82003006801F0F1F8009858
:102C1C00FFF7CEFBE8B9009D2846FFF7CDFB8146B8
:102C2C0099F8080000070ED5D9F81010D9F80C2027
:102C3C0008209047C0B2012805D1DFF8E4020068F3
:102C4C008047022405E04846FFF7BAFB8146A945B8
:102C5C00E6D1012088F804000398FFF7B5FB01F0DA
:102C6C0055F80298FFF784FB204605B0BDE8F08FBD
:102C7C0030B52B48DFF8A854006881B0EFF311840D
:102C8C0080F31188E888012803D100F0A9FD002009
:102C9C00E88084F3118801B030BD000010B5DFF876
:102CAC0084140968EFF3118481F31188FFF790FB0A
:102CBC0084F3118810BD00002820086028200840EB
:102CCC00F0B596490968064613480F1881B0384686
:102CDC00FFF76EFB0025D8B93846FFF76DFB0446AD
:102CEC00A06830420ED02169E26830469047C0B2ED
:102CFC00012807D1DFF82802006880470225284602
:102D0C0001B0F0BD2046FFF75BFB0446BC42E7D1A7
:102D1C00284601B0F0BD00007004002000A00C405B
:102D2C00DC890000642A0020C8890000E0890000CA
:102D3C0030BF7047F0B581B001F056F8DFF8E053C2
:102D4C002C6804F00C000C2856D0600736D4DFF841
:102D5C00D4036D4F0068EFF3118680F31188B868C7
:102D6C000021FFF715FB7969081AB969814238BF50
:102D7C000020664986F31188096881421ED2DFF86B
:102D8C00A81309684C19DFF8A4130D68DFF8A01319
:102D9C000968B1FBF5F1411A2046FFF7E1FA20462C
:102DAC00FFF7EEFA4FF47A70B0FBF5F20021012038
:102DBC00FFF71EFD2046FFF7DFFA1FE020071BD4AC
:102DCC001648DFF86451E106524C01685ABF4908B5
:102DDC00490041F00101016010202168C96B88474E
:102DEC00216889692020884728682068806B804783
:102DFC0001202860286801E0FFF79AFF00F0F8FF37
:102E0C0001B0BDE8F04000F0ABBF00007B2A002011
:102E1C004010094004400340A00100108C210840E0
:102E2C00F0B5DFF82C13DFF82C430968DFF82853D2
:102E3C00DFF8286381B00968202088470F20E06004
:102E4C00072341F61D5020614FF4C0720220009000
:102E5C000021284600F035FD0120306030688007E5
:102E6C00FCD50120E061DFF8E4723888012823D119
:102E7C0000203061032020600020706070688007A3
:102E8C00FCD402200090052360220021284600F08B
:102E9C0018FD0120706070688007FCD50820A061C7
:102EAC00082100202060DFF8B802C1600160012019
:102EBC002060786001B0F0BD0320206000207060BD
:102ECC0070688007FCD4002000900523602200214C
:102EDC00284600F0F6FC0120706070688007FCD575
:102EEC000120A061082100202060DFF87402C1607D
:102EFC0001600120206001B002207860F0BD00006C
:102F0C00A0860100F429002078010020D48900005B
:102F1C00B0850000B8010010B4070020CC89000077
:102F2C00D08900000C2008402C2009409001001092
:102F3C0010B504460020D4E90A2347F6906100F04E
:102F4C005FFF012928BF4FF0FF3010BDDFF81402DE
:102F5C0002684068000C40EA0240021D081AB0F1F9
:102F6C00004F05D8501AB0F1004F38BF914200D233
:102F7C001146DFF8F4211268526A01201047000054
:102F8C000C400940B42200002DE9704306460A4665
:102F9C00D6E90A01D6E90C45A0FB028901FB02998E
:102FAC00DFF8C0110A68496814EB080445EB090501
:102FBC00090C200C41EA024140EA05400A1D411A65
:102FCC00B1F1004F05D8111AB1F1004F38BF904242
:102FDC0000D21046DFF890211268526A0146012097
:102FEC009047C6E90E45BDE87083000000400340E1
:102FFC00000004601010044008410440F0B5054680
:10300C00DFF82001DFF864610068DFF8687181B0D7
:10301C00EFF3118480F31188306840F08000306049
:10302C000120B96849688847F96A096A14208847F9
:10303C002869BA68526AB0F5802F34BF0421010C9C
:10304C00012090473A681268232100209047B96804
:10305C00C96901208847306820F4E02040F48030B2
:10306C003060306840F00100306084F3118801B0AA
:10307C00F0BD000080E200E0DFF8E8000368406883
:10308C0000220021101859417047DFF8DC10DFF8DE
:10309C00E80010B5096844684968012088476069F0
:1030AC00A169BDE810400847141009402DE9F04310
:1030BC000446DFF8B000036840680D46002200218A
:1030CC00D4E90A671018594132463B4600F098FE85
:1030DC003DB1A6FB008906FB019907FB0099C4E9E9
:1030EC000C89BDE8F08330B5DFF88040DFF8805004
:1030FC0081B02068400840002060206840F08000CB
:10310C0020600120E062E06A296849680120884754
:10311C00696A096A14208847E06A01B030BD000072
:10312C0070040020DC890000C4890000E0890000E4
:10313C00D8890000DFF82C000368406800220021C9
:10314C0010185941000C40EA01407047D829002062
:10315C00A001001000400C4000A00C4034600C405A
:10316C002C500C40082009408C0100100020094014
:10317C008C01001084010010E4010020FEE7704770
:10318C002DE9F043DFF85804A1B0046814F1010FE5
:10319C0008BF002400F0C2FE00F0AAFE032804DBE6
:1031AC00DFF840140020086021E08422DFF8381496
:1031BC0000A8FFF78BF8DFF83424DFF83414DFF8BD
:1031CC0034040DF101039847DFF82C040021016051
:1031DC00416A41F00F014162416A21F0C00141F0A6
:1031EC0080014162DFF81414096803210160012099
:1031FC00DFF80C14DFF80C540860DFF80C040068DE
:10320C00C0073AD56868C00734D5DFF80004DFF88A
:10321C000084006898F80010C0F304401628A8BF7A
:10322C00203801F01F011629A8BF2039884221D06F
:10323C000022401A01282A6003DB471E481C860125
:10324C0002E0471C8801461E4FF04009BE19B01120
:10325C0000F01F0088F800002C2000F0CDFDB9F123
:10326C000109F3D1002F44BF41F63F2000F0C4FD0B
:10327C00F0202860204600F01FF8DFF89803DFF8F4
:10328C009823016841F000510160DFF89003016858
:10329C006FF31B41114301602868C0F30130012812
:1032AC0007D12868DFF87813084040F40031296012
:1032BC00286021B0BDE8F0832DE9F84F0446DFF813
:1032CC0064830120C8F80000D8F804008006FBD500
:1032DC00C020DFF854A3DFF85473CAF80000BD68AF
:1032EC0005F44000B0F5000F08BF032103D00028FF
:1032FC000CBF01210221042000F0BEF97968CC48F2
:10330C0089075DBF3968090C41F0F0017221017029
:10331C00C5F3C061C74881F001010160C5F380614C
:10332C0081F0010181600CB9C34E2AE0C3480068EA
:10333C00C0F38361AA03C0F38F2020D42A04121691
:10334C000AD54FF6FF73400804D11846490804BF4C
:10335C0001210120521CF6D4012A10DB400040F060
:10336C000100B0F5803F21BF0120490041F001016F
:10337C00102924BF0F214FF6FF70521EECE740EAD4
:10338C00014600F031FD401E8041C00FAC4D296854
:10339C000029FCD0DFF8AC92C9F81060012129603B
:1033AC0008B100F025FD0CB9D82008E0A34A10683C
:1033BC001168C0F3870001F0030140EA012000907E
:1033CC0040F2FF36002332462C219F4800F079FA58
:1033DC001CB19A48C06A8604B60C00F005FD401E6C
:1033EC008041C00F29680029FCD0C9F81460012164
:1033FC00296008B100F0FCFC002C0FBF934E8F48E5
:10340C00406A20F0033600F0EFFC401E8041C00FF4
:10341C0029680029FCD0C9F80C600121296008B189
:10342C0000F0E6FC0CB98A4E04E084488949006A35
:10343C0001EA000600F0D8FC401E8041C00F29684C
:10344C000029FCD0C9F808600121296008B100F0FE
:10345C00CFFC0CB9804F1EE07848806A7B68DB0794
:10346C00C0F30352C0F303410AD43B681F0502EBBF
:10347C0027721B0482F3040201EB237181F3040114
:10348C00090441EA025182B242EA0107222C24BF0C
:10349C0000F08040074300F0A7FC401E8041C00FA5
:1034AC0029680029FCD0C9F804700121296008B1F1
:1034BC0000F09EFC2220222C604E06D3F06B000FF5
:1034CC0000F00100400040F02000644F38721120E1
:1034DC00222C05D3F06B400F00F0010040F01000DF
:1034EC00202C38724FF0000B07D3B06CC10C01F4D8
:1034FC004071C0F3845040EA010B00F075FC401E93
:10350C008041C00F29680029FCD0C9F820B00121E6
:10351C00296008B100F06CFC6020202C06D3B06C44
:10352C00000D00F00300400040F06000F8728020B5
:10353C00222C06D3F06BC00E00F00100C00040F04E
:10354C0080003870222C4FF47C4006D3F06B400D79
:10355C0000F03F00800040F47C404149414F08801E
:10356C00202C0AD3B06C0203810A02F47C1242EACA
:10357C00815100F00F0041EA003700F035FC401E8D
:10358C008041C00F29680029FCD0C9F800700121C6
:10359C00296008B100F02CFC3348442101708821CB
:1035AC0081700CB9302105E0F16BC90C01F00301FD
:1035BC0041F03001C170F0692C4900F03F000870F7
:1035CC0047F618002A4908802A490C480068002050
:1035DC00CAF80000C8F8000001200860BDE8F18FAF
:1035EC001C13005084046042FC850000002009403C
:1035FC000010094000000340005009402C200940F5
:10360C005C600C40040009400C4009403C11005027
:10361C000662084004400340000039014820034082
:10362C00FFFFFCFC1010094000600C40AC3F005048
:10363C005662084000002043FF0F0F00501300504B
:10364C0000800C4008A00C4000A00C4000008868D2
:10365C008A766800FFFFFC00273F710041A10C40F7
:10366C00DCA10C4000803F4005A10C400BB00C408D
:10367C0070B00C409404604270B50546E80782B007
:10368C000C4611D5A0B200900023774E01220021E8
:10369C00304600F016F9012000901F234FF0004235
:1036AC000021304600F00DF9A80707D5A0B2009014
:1036BC000123022200216C4800F003F9680707D5AA
:1036CC00A4B2009402230C220021674800F0F9F800
:1036DC0073BD0146042907BF1D234FF0C0421C23B4
:1036EC004FF080526048342100F00EB910B55F4C99
:1036FC0021688968012088475D4801688906FCD5E6
:10370C0021690968402088472169896840208847D9
:10371C001128F9D110BD70B504465648564D0168B4
:10372C004068000C40EA01406968401A4FF47A7115
:10373C004843060C00F008FC2969401A48BF404277
:10374C00311940F6B932914207D2062805DAA86839
:10375C00E968814201D32A6852B948494A68D207BC
:10376C004FF4FA6016D40868C0B27D21484308E0D3
:10377C00081A43494843000C00EB9000904238BFB4
:10378C001046C82801D2C82070BDB0F57A6F88BF2A
:10379C004FF47A6070BD10B582B001200090002308
:1037AC00314C01221946204600F08BF80120009084
:1037BC001F234FF000420021204600F082F8012028
:1037CC000090034602220021204600F07AF8294896
:1037DC0001684068000C40EA01402749886013BD2D
:1037EC0080B50120FFF775FF01281ED000230122B0
:1037FC0034211D4800F088F8C0B122480068804789
:10380C001C4801684068000C40EA01401A498B686A
:10381C000A68C860A2EB9202C01A194B5843000CFC
:10382C000860904238BF10460860012002BD10B5F8
:10383C0000210320FFF720FF1C234FF0805234217E
:10384C00094800F061F810B10E480068804709483B
:10385C00094C01684068000C40EA0140606000F0CF
:10386C0073FB206110BD000000A00C409001001003
:10387C0014100940082009401C2A0020AC3F0050BD
:10388C0040420F008000001038B504460D4600F091
:10389C00ABFA401E8041C00F1A490A68002AFCD0BE
:1038AC00012D02D0022D02D003E0247802E02488FE
:1038BC0000E0246801220A6008B100F099FA204661
:1038CC0032BD38B500EB4100102B00F5007402D36B
:1038DC00103B241D120C0498984040EA024500F05D
:1038EC0083FA401E8041C00F06490A68002AFCD0AA
:1038FC00256001220A6000281CBFBDE8314000F0A1
:10390C0077BA31BD00800C4038B51D460818102D13
:10391C00144602D3103D801C240C0221FFF7B4FF87
:10392C0004EA000188B2E84032BD0000DFF800F084
:10393C0049C10110DFF800F019C20110DFF800F0E6
:10394C000DC30110DFF800F081C60110DFF800F0A4
:10395C0095B70110DFF800F08DC20110DFF800F010
:10396C003DC20110DFF800F009C30110DFF800F0D0
:10397C0045C00110DFF800F0D1C70110DFF800F0EE
:10398C0067BE0110DFF800F021B30110DFF800F082
:10399C0011C80110DFF800F021C801100C2811D05B
:1039AC00192814D01D2817D020281AD021281DD052
:1039BC00252820D02A2823D02B2826D02C2829D0E3
:1039CC0000207047DFF8DC01006800687047DFF802
:1039DC00D401006840687047DFF8C801006880684F
:1039EC007047DFF8C0010068C0687047DFF8B401A9
:1039FC00006800697047DFF8AC01006840697047E7
:103A0C00DFF8A0010068C0697047DFF89801006812
:103A1C00006A7047DFF88C010068406A704700B597
:103A2C008BB00A2100A8FFF789FF0BB000BD00B5D1
:103A3C0081B0FEF72BFDDFF87001DFF87011006824
:103A4C00884218BF00F034F8DFF86401B0F5B26FAB
:103A5C0003D001B05DF804EB2BE001B000BD00B564
:103A6C0081B00FF22100FFF76DFFFFF76FFFFFF73B
:103A7C0071FFFFF773FF01B05DF804EBFFF772BF46
:103A8C000000000000B581B0FEF77EFCFEF76CFC78
:103A9C0001B05DF804EB0320FFF768BF10B50446D6
:103AAC000320FFF763FF2046BDE81040FFF762BF1D
:103ABC00FEE7FEE700B581B0FFF760FFDFF8F4002A
:103ACC00C06801B05DF804EBFFF75CBFDFF8E810ED
:103ADC00DFF8E80088617047DFF8E41001280CBFBC
:103AEC0040F2FF70002008600020704770B5FFF7AF
:103AFC001DFFDFF8D0600546F08820B1FFF770FE9F
:103B0C0050B10020F0801020FFF7DAF8A4B2012C9D
:103B1C000BD1FFF785F908E0052106F13000FEF71F
:103B2C001FFC06F13000FEF72BFC2846BDE8704068
:103B3C00FFF700BF10B5012818D1FFF7CAFD012807
:103B4C0016D0FFF728FEDFF87C400120E08004F15E
:103B5C003000FEF711FC052104F13000FEF700FCEB
:103B6C0004F13000FEF70CFC002010BDFFF75FFEE7
:103B7C00002010BD10B501240E2805D10120FFF73F
:103B8C00A8FD012805D003E0DFF83C10405C00B92B
:103B9C000024204610BD00207047FFF7F7BEFFF74A
:103BAC00F9BE0000F001002098CA011070472820CF
:103BBC009005000078010020440100200002000064
:103BCC000000046070040020F4290020F8B50546BC
:103BDC00784841680068000F032818BF11F1010FE5
:103BEC0006D0222904D3744C206810F1010F03D1A4
:103BFC00724973480860F1BD00F0A6F9714A126869
:103C0C00002112F0030F18BF0121520748BF41F0E9
:103C1C0002010DB141F004016B4A92F90730C31A4D
:103C2C00052B02DA9379994252D0A0F10F030026AA
:103C3C000025002B21D403EB03131D12082D28BFE4
:103C4C0007252E46072E28BF062604EB860754F8B8
:103C5C0026607F68BF1BFEB25FEA417C44BFC7F39E
:103C6C00072C66445FEA817C44BFC7F3074C66446B
:103C7C005FEAC17C48BF06EB176654F82570FCB2AE
:103C8C005FEA417C44BFC7F3072C64445FEA817C44
:103C9C0044BFC7F3074C64445FEAC17C48BF04EBE4
:103CAC001764A3EB05237343484D2D688033092B10
:103CBC009B41DB43EDB24FF4EA76754304EBD373CF
:103CCC00B5FBF3F3B3F5803F28BF4FF6FF7393803A
:103CDC0000F30700D07191713D4800689188106025
:103CEC0000201F2904D21F21918004E04908401CA8
:103CFC00B1F5007FFAD20F39090940EAC1002F4A09
:103D0C0034490843106000205060F1BD10B500F03C
:103D1C001BF92D4991F90720904205DA6FF07F02CB
:103D2C009042B8BF1046C8712B4800688A8880B290
:103D3C0008B9500812E0904210D3254B1B680C6850
:103D4C001B1B5B1C202B28BF1F23801A20FA03F49B
:103D5C00A018B0F5803F28BF4FF6FF70888010BDCB
:103D6C001E48816801F04062B2F1406F21D0426878
:103D7C0092071ED41A4ADFF86CC01368DCF800C036
:103D8C000068C0F303501C30000113F0050F05D080
:103D9C0084450ED223F0050010607047604508D2B0
:103DAC00080158BF43F00103480158BF43F0040316
:103DBC0013607047181300509C13005030100940CA
:103DCC0008FFA480242208406C2A0020B43F005035
:103DDC000820094000FFA48034100940AC3F00507B
:103DEC000000094028500940EFF3108072B670476C
:103DFC00EFF3108062B670470138FDD17047704701
:103E0C001B4213D1094236D12AB18446B0FBF2F0E1
:103E1C0002FB10C2704700F0ABB8FCD300220023A9
:103E2C0070470B000200002100207047904271EB9C
:103E3C00030CF6D370B5B1FA81F4B3FA83F52C1BED
:103E4C00A340C4F1200532FA05F63343A2405FF0DB
:103E5C000046E64002E05B085FEA3202841A71EB2E
:103E6C00030524BF204629467641F4D302000B00FB
:103E7C003000002170BD012ACFD970B5140C20D0B0
:103E8C00B1FA81F4B2FA82F5C4F120046419B4F1E8
:103E9C002006D6D3B2405FF00044F440002502E087
:103EAC0052085FEA3303C61A71EB020E24BF304688
:103EBC00714664416D41F3D302000B0020002900D0
:103ECC0070BD0C46B1FBF2F102FB11452D0445EA25
:103EDC001045B5FBF2F402FB145580B240EA0545DF
:103EEC00B5FBF2F002FB105240EA044070BD00003A
:103EFC0014490968090F08294FF0FF300DD8DFE885
:103F0C0001F0050507070C0C0C090B00002070478D
:103F1C00012070470220704703207047094802684F
:103F2C000121120F91404FF4C572114207D0006865
:103F3C00000F801E012884BF401F012800D9FEE716
:103F4C0070470000181300500748084A816812781F
:103F5C000068C90352B2A0F54070C9135043A1EBDD
:103F6C002010803000127047285009400C1300506C
:103F7C0070470000DFF800F041AC0110DFF800F0F2
:103F8C006DA9011000B583B000F00DF8032114E009
:103F9C00E0B500F008F8042100F012F808B1002098
:103FAC000EBD02980EBD0821ADF8001001907047AF
:103FBC0000B583B0FFF7F7FF052100F001F807BD4E
:103FCC00ADF8021000A8DFF8C4190968084780B5DD
:103FDC000121FDF7E7FD00F003F8BDE8014027E102
:103FEC00002010B5DFF8A84920706080A072A08175
:103FFC000021DFF8A009017041808172818184B0B9
:10400C000FF24D70FDF7F5FD00F0ECFD00F02CFE0D
:10401C00002001900090002364220FF2A57104F19E
:10402C00580000F095FEE06300F057F80FF29D7118
:10403C0004F17C0000F08CFE206400F04EF80FF6CA
:10404C00690104F1A00000F083FE606400F045F803
:10405C000FF6610104F1C40000F07AFEA06400F0D8
:10406C003CF80FF2417104F1E80000F071FEE064DD
:10407C0000F033F80FF2397104F5867000F068FE29
:10408C0020650FF20D6000F099FE00F06FFF00202C
:10409C00A0862920207504F13200A06104F13400BF
:1040AC00E06104F136006062DFF8E0180FF61100F1
:1040BC00A0623C20208460840820ADF80000012020
:1040CC00ADF8020000A809688847BDF80400A08577
:1040DC000298A06300F007F81FBD64220020019035
:1040EC000090034670470820F0B5DFF8AC58DFF8B5
:1040FC00A048287005F128064FF4827730706F8045
:10410C000020A880B560B1B0A87900F0F000A871CB
:10411C0031460220E87105F14C00A860012028739B
:10412C0005F148002861A08DFDF7FCFC09203074D6
:10413C002875EF8240F20230288305F13801A87E01
:10414C0000F0F000A8760320E87605F15000E86155
:10415C00012085F8200005F14A00686205F1140081
:10416C00B061A08DFDF7DEFC1EA84821FBF760FFB7
:10417C0001208DF8B6008DF8B7008DF89200012162
:10418C000DF192004170017641761EA9A08DFDF7CC
:10419C00E9FFA08DFDF716FD0FF61C0000F0B2FF35
:1041AC0000F042F805F15801082001F0E9F805F19A
:1041BC005801092001F0E4F80FF28130FDF7F6FC0C
:1041CC000FF604020F210820FCF722FA0FF6AC02BE
:1041DC0011210920FCF71CFA02A87021FBF728FF1B
:1041EC0000A80021002206C001208DF868008DF87F
:1041FC0044008DF8691011A84FF400614160082249
:10420C00012181720DF14F0000A9FEF74FF801203A
:10421C008DF8240002A94FF6FF70ADF82600A08D92
:10422C00FDF758FF31B0F0BD0221002000F0CBBEED
:10423C0070B588B0DFF85447DFF8545747E00021D9
:10424C00288C00F03DFBE88D4FF6BF710840E885E7
:10425C0095F82E00000613D500A800F0FEFA10B158
:10426C00BDF80000688600F060FB688E698CA8863B
:10427C00288C00F025FBE88D4FF67F710840E8850F
:10428C0095F82E00000708D50021012000F06AFFE8
:10429C00E88D4FF6F7710840E88595F82E00400739
:1042AC0008D50021632000F05DFFE88D4FF6FB710F
:1042BC000840E88595F82E00C00608D541F28830F4
:1042CC0000F089FAE88D4FF6EF710840E885082078
:1042DC00ADF808000A20ADF80A004FF0FF3003904B
:1042EC0002A8216888470028F1D10820ADF81000F9
:1042FC000920ADF8120004A821688847BDF81610F3
:10430C00069E90B9BDF81400302804BFA88D8142D8
:10431C0007D156B1304600F058F83046FDF770FF23
:10432C0000E016B13046FFF72DFEE88D40050DD5A7
:10433C0000F0E0F901208DF8050001A9A88DFDF72A
:10434C00B8FEE88D4FF6FF310840E88595F82E0051
:10435C00800609D5A87C00F02EF90020A8744FF631
:10436C00DF71E88D0840E88595F82E00C0070AD566
:10437C00288E08B1401E288600F0C0F9E88D4FF653
:10438C00FE710840E88595F82E0040067FF560AF79
:10439C000DF1020000F061FA10B1BDF80200688660
:1043AC00B5F93200B5F93410401AB5F9361048BFDA
:1043BC004042002948BF49428842FFF640AF00F016
:1043CC00B4FA688E698CA8863AE730B585B0044695
:1043DC00A01C2178DFF8B855662926D091294DD03C
:1043EC00922947D0942961D10078297C81425DD0F3
:1043FC0009281CBF07280628287410D1A88DFDF7A2
:10440C00D9FBFFF711FF022100F075F9698C288C9C
:10441C0000F056FA0021022000F0A4FE46E0032131
:10442C00FFF703FF00F066F940E00820ADF8040048
:10443C000220ADF80600DFF85415A07A0968801D3B
:10444C00029001A8884788BB039D7DB3A079287092
:10445C0020896880A07A2871A27AE168681DFDF72E
:10446C0025FF009500A9052000F07CFE2846FFF7EB
:10447C0089FD1BE0201D00F01BF817E00178B9291D
:10448C0004BF4078092811D105F1A004204600F0A2
:10449C0085FC10B1204600F088FC05F1C4042046D0
:1044AC0000F07CFC10B1204600F07FFC05B030BD64
:1044BC0030B504468DB0E089ADF802000DF102056F
:1044CC00208A6880A07A6873A089E8812078287394
:1044DC0002281CBF01280F2802D16088A88007E0A1
:1044EC00032805D10822A11C0DF10600FDF7DEFE04
:1044FC00608A2882207DA874607DE874E07D287530
:10450C00207E6875607EA875A07DE875E0690790CF
:10451C0007A894F820100171618C018204F1240128
:10452C004A7882740A7802728A7842814968C1603A
:10453C0000A8FCF7C2FA0DB030BD0000FEB5044671
:10454C00E07A06282FD1676938788000801C80B209
:10455C00FFF71EFD0026050025D0002008E005EB26
:10456C00860186228A70761CB8F802208A80401C4C
:10457C003978C0B28842F6B2F1D326B90020A870BF
:10458C000120287000E02E702068A17A02912B4641
:10459C00012101910091811D8288007DFCF7B7F902
:1045AC002846FFF705FD606918B1FFF701FD0020F3
:1045BC0060610120FEBD30B508288BB0DFF8D04318
:1045CC001BD120788DF8240002236088ADF81C00E4
:1045DC000622A07A8DF8250007A9A089ADF826003F
:1045EC000020069005900490039002900190012009
:1045FC0000900820FCF74DF847E0102808BF082071
:10460C0002D0182803D1092000F0F7F83DE01F284C
:10461C000ED10420FEF7D4F800224FF4F8314FF4F9
:10462C000030DFF8783398470420FDF7DFFF2CE0EB
:10463C0017282AD1012100F05EF8A08DFDF7BAFAF7
:10464C0005460822A91C0DF10200FDF72FFE288853
:10465C00ADF8000000A90020ADF80A00A08DFDF710
:10466C00A9FD04F17C0000F099FB18B104F17C0069
:10467C0000F09BFB206CCA49FDF772FE032100F091
:10468C003AF804F17C0000F087FB0BB030BD000061
:10469C00BF498874C88D40F02000C885886BFFF72F
:1046AC0069BC38B504280D46B94C04D1B420208619
:1046BC00BDE8314022E063281BD10020208600F0A9
:1046CC001DF8287860B9B7480078092803D1618CA7
:1046DC00208C00F0F5F8FFF7A7FD022100F00BF895
:1046EC00E08D40F01000E085A06BBDE83240FFF794
:1046FC0041BC31BD0021012000F065BC10B5A44CBB
:10470C0004F1580000F04AFB18B104F1580000F015
:10471C004CFB208E50B1A4494143E06BFDF720FEC9
:10472C0004F1580000F038FB032100E00021BDE843
:10473C001040012000F047BC808895490886DDE7D1
:10474C0080B5009000A9042000F00CFD01BD000014
:10475C00F8B504466420042900FB02F58C4E0BD1FD
:10476C0006F1E807384600F019FB10B1384600F0A6
:10477C001CFBB4B1F06C0CE0082912D106F586775D
:10478C00384600F00BFB10B1384600F00EFB44B17C
:10479C00306D2946FDF7E4FD3846BDE8F24000F0E7
:1047AC00FBBAF1BD7A48C18D41F0040104E0000070
:1047BC007748C18D41F00801C185806BFFF7DABBEA
:1047CC007348C18D41F00101F6E700007048C18DBE
:1047DC0041F48061F0E710B59CB0044600A870214C
:1047EC00FBF726FC01208DF80600029400A968480E
:1047FC00808DFDF76FFC1CB010BD654900B50A7CBF
:10480C0085B0092A1CBF072A062A8DF8000001D1A1
:10481C00012200E000228DF80120012208288DF8E9
:10482C00022008D100208DF8030001908DF808209B
:10483C0001F1540007E001F1560001908DF80320BE
:10484C0000208DF80800039000A800F066FC4FF4DF
:10485C007A70FFF7C0FF05B000BD3EB504460120DD
:10486C0000F003FA514952480968B0FBF1F0FFF728
:10487C0085FB00A90DF1020000F00EFA05460020A0
:10488C0000F0F3F975B1BDF80210BDF8000001ABF2
:10489C0002AA00F03FFA0199464800F05BFE00F0D6
:1048AC00C5FE208028463EBD3948C18D41F04001EF
:1048BC0082E700003648C18D41F080017CE70000A2
:1048CC002DE9F845324E044606F1A0070D46384650
:1048DC0000F064FA10B1384600F067FA06F1C4082B
:1048EC0035B1404600F05AFA10B1404600F05DFA7E
:1048FC004FF6FF70854216D0AC42DFF8ACA007D261
:10490C00706C0AFB04F1FDF72BFD384600F044FAFD
:10491C004DB1B06C0AFB05F1FDF722FD4046BDE838
:10492C00F24500F039BABDE8F18510B586B00C201F
:10493C00FFF72EFB040027D0164801788DF81410D1
:10494C0023464188ADF80C10817A8089ADF81600A9
:10495C008DF81510012020700020A0802920A07156
:10496C000B4800F13201A160417C02914A1C427457
:10497C0001200190009040F2024203A90920FCF7AB
:10498C0029F82046FFF714FB06B010BDA407002041
:10499C0008020020302A0020E803002001F001006A
:1049AC00E093040028290020A0860100E089000083
:1049BC00383204000000C842100400200800040033
:1049CC0019020020AF460000000000000300200187
:1049DC004C87000000000000000020014D87000003
:1049EC00000000000400420150870000000000009D
:1049FC00050042016487000000000000060042012F
:104A0C007887000000000000070020018C87000060
:104A1C000000000010004203880700200000000086
:104A2C00110020034D2A002000000000120020037A
:104A3C002808002003000000000021033802002099
:104A4C0006000000000010014E2A002007000000A4
:104A5C00000030014F2A0020070000001000300336
:104A6C002B080020000000000000000000000000E7
:104A7C00000000000000000000000000000000002A
:104A8C00030020014C870000000000000000200102
:104A9C004D87000000000000040042015087000018
:104AAC0000000000050042016487000000000000C7
:104ABC00060042017887000000000000070020017A
:104ACC008C870000000000001000420388070020C3
:104ADC0000000000110020034D2A002000000000FF
:104AEC00120010032908002003000000000021031D
:104AFC003802002006000000000010032A080020E5
:104B0C0002040000000029013A0200200204000007
:104B1C00010029018E87000002040000020021011F
:104B2C009087000000000000000000000000000062
:104B3C000000000000000000000000000000000069
:104B4C000000000000000000DFF800F0C1C10110FF
:104B5C00DFF800F009B70110DFF800F029B40110FC
:104B6C00DFF800F0CDA0011000B587B00090002058
:104B7C00039002900191FFE73248017C40698DF867
:104B8C00101000A900F09DFD07B000BD00B587B066
:104B9C000090019103930292EEE770B50E462A49FC
:104BAC00284C09680546294800F056F8B0B126741F
:104BBC00607C854211D06574606900F059FD204617
:104BCC0000F07CFD607C012804BF0FF29800E060CF
:104BDC002146002000F066FD6061012070BD1C487C
:104BEC00FFF7C8B910B58AB008232422002100A809
:104BFC00FFF7AAFF01208DF8180000AA114C012123
:104C0C0004F11800FFF7A4FF00F015F800F033FDD5
:104C1C00204600F053FD012020722146002000F0B8
:104C2C0041FD6061FF2121740021617408B9FFF717
:104C3C0093FF0AB010BD074909684FF4407008474C
:104C4C0000000000F4280020E0890000A0252600C8
:104C5C000C29002078000010B0FBF1F104F11800D1
:104C6C00FFF77EBF08090000002010B5044600F0D5
:104C7C004BF880B1002C14BF4FF480500020244915
:104C8C00000A88800222091D022000F025FD04463E
:104C9C00FFF7A5FF204610BDF8B504460D4600F001
:104CAC0033F880B31A4E0222311D042000F00CFDA3
:104CBC00070020D0B088010A41EA0020B08000042F
:104CCC00800F10F0010716D002223146012000F0AF
:104CDC00FBFC07000FD00222B11C032000F0F4FCF7
:104CEC0007463078717841EA00202080F178B0785E
:104CFC0041EA00202880FFF772FF1FB904213046DB
:104D0C0000F0FFFC3846F2BD44210020FFF745BF00
:104D1C00742A0020F8B5044615461E46880800F093
:104D2C00FBFC4FF07457394600F014FC2860A008C7
:104D3C0000F0F2FC394600F00DFC3060F1BD0000D3
:104D4C00DFF800F085C10110DFF800F079B5011033
:104D5C00F0B589B004460D4616461F46082324229A
:104D6C00002100A8FFF7ECFF0F9811490968069085
:104D7C0000AB4FF47A70B0FBF1F101FB07F005903A
:104D8C0001FB06F20E98ADF8100029462046FFF7FD
:104D9C00DBFF204609B0F0BDFDF7F2BA80B5FDF798
:104DAC006CFB00B10120C0B202BDFDF7E5BA0000FA
:104DBC00E0890000DFF800F0D9B6011030B50446E8
:104DCC00674D83B005F1440105F1500000F0C4FDBE
:104DDC00E8610FF2250100F04AFE002001900090DE
:104DEC000023604A0FF2B90105F12000FFF7B0FF74
:104DFC006861AC6137BD000070B500260024042941
:104E0C00574D18D1042000F018FE00B9012646B108
:104E1C002878C10605D440F010002870FFF7CAFFAF
:104E2C0068600EBB2878C0061ED5A868E0B9FFF7ED
:104E3C00C1FFA86018E0B9B9002000F0FEFD00B970
:104E4C00012444B12878010705D440F008002870EB
:104E5C00FFF7B0FFE8603CB92878000704D5286953
:104E6C0010B9FFF7A7FF286156EA040005D128788E
:104E7C0018B1BDE87040002012E005F12000FFF7EA
:104E8C008DFF18B905F12000FFF78FFF68693549D0
:104E9C00FDF766FA05F12000BDE87040FFF77CBF16
:104EAC00F8B52F4C04F12000FFF778FF98B9207863
:104EBC00000704D5206910B9FFF77CFF206120782A
:104ECC00C00604D5A06810B9FFF774FFA06004F108
:104EDC002000FFF76AFFA16908003FD0224A25781D
:104EEC001268182D284641F270731FD1A768D4F8A8
:104EFC0004C000250026BC4506D2A7EB0C05554383
:104F0C004FF47A77B5FBF7F52769D4F80CC0BC459C
:104F1C0006D2A7EB0C0672434FF47A76B2FBF6F688
:104F2C009D42B8BF9E4210DB1F200EE0102D0CD10D
:104F3C00A7686668BE4208D2BD1B6A434FF47A75F7
:104F4C00B2FBF5F29A42A8BF172020702078884750
:104F5C00002020706060A060E0602061F1BD000066
:104F6C00E0040020C0270900E08900007CB55C4CFF
:104F7C0004F12C0104F1380000F0EEFC6060002616
:104F8C00002000F0B7F80546002004F8160004EBEA
:104F9C00460102204870304600F0A6F8C1B26068A5
:104FAC002A4600F051FD761C022EEDDB002001900C
:104FBC00009000234FF4FA720FF2790104F108000B
:104FCC00FFF7C6FE73BDF8B505460C46022DB8BFFB
:104FDC00042C2DDA00F088F807462046404E00F0ED
:104FEC0089F8022C06F8154018BF032C024603D191
:104FFC0006EB450100204870F9B2706800F024FD02
:10500C0000F024F8002806F1080008D0FFF7C6FECF
:10501C0070B906F10800BDE8F240FFF7BDBEFFF71E
:10502C00BDFE28B106F10800BDE8F240FFF7BDBE99
:10503C00F1BD000080B500F01EF800F007F820B1BB
:10504C00BDE802402748FFF7A7BE01BD0020244958
:10505C0011F81020032A06D0022A06D101EB4002D7
:10506C005278022A01D001207047401CC0B202289D
:10507C00EEDB002070472DE9F0410024184D15F8A7
:10508C001400D5F80480032805EB44070FD1E0B2D7
:10509C0000F02AF806467878012803D100F02AF8A7
:1050AC00002111E0002000F025F801210CE002287D
:1050BC0010D1787802280DD0E0B200F015F8064631
:1050CC00002000F017F8022179700246F1B2404638
:1050DC0000F0BAFC641C022CD1DBBDE8F0810000AE
:1050EC0028060020300600200A21012808BF0F21C5
:1050FC00084670470021401E022898BF012108462F
:10510C007047000010B5964C0146102204F11800AF
:10511C00FCF791FD0120207410BD10B5904C217C42
:10512C00F9B1A17C29B1022060746320BDE8104064
:10513C0083E0014610222046FCF77DFD00206074C0
:10514C002075E0746078002814BF0320022000F062
:10515C0074F8E18BA069834A0078BDE81040FCF735
:10516C002EBE10BD30B57E4C0D46A17C002987B0FB
:10517C005BD001280AD002280BD0032813D00428B6
:10518C0015D0052832D063284AD04EE000F05DF8E7
:10519C004BE0022949D1A0690078B4220021FCF728
:1051AC0024FE04203FE0A07800283ED136E0FCF736
:1051BC0068FE296809680A88824236D0228503A9CC
:1051CC0028680068407A237A6075ADF80C200220BC
:1051DC008DF8140060680290E0780190E06800900F
:1051EC00A0690078FCF7C2FD06201CE02868A8B175
:1051FC00017899B9007988B101202075208DE37868
:10520C00ADF80C0002208DF8140013B1606800F0AA
:10521C000EF8237A13B1E06800F009F8072002E0D9
:10522C0003206074632000F008F807B030BD627D85
:10523C00009003A92078FCF7F3BD494B998B987427
:10524C00052298690078FCF7BABD10B58EB04FF600
:10525C00FC70ADF82C000F208DF834004FF6FF7069
:10526C00ADF820000F208DF82800FF208DF82900C4
:10527C003B4CA07C022814D0032808D0042818D05A
:10528C00052823D0072839D063284CD066E00120AC
:10529C00E074B422A06900780BA9FCF7A6FD0420E9
:1052AC0011E00020E0740021A0690078FCF7AEFD4D
:1052BC0054E0626A100002D0002104209047A078CC
:1052CC0000284BD00520FFF7B8FF47E0206A017893
:1052DC004A1C027000200690059003900491012056
:1052EC00029001230020019003220120009008A9C4
:1052FC002078FBF7CEF900F03CF82FE0A07818B13D
:10530C00207D08B904206074626A100005D0607CAE
:10531C008DF81C0007A90720904700F025F800F035
:10532C0028F8632019E000F01FF8E07C28B1A06990
:10533C00007800220BA9FCF758FD626A10000BD014
:10534C00607C8DF81C0007A9607D8DF81D00208DF8
:10535C00ADF81E00A07C90470020A0740EB010BDCC
:10536C002829002020BF0200A069E18B0078FCF7FF
:10537C002FBDA069A18B00784FF47A62FCF71FBD9A
:10538C0070B5424E044630780D4630B90FF27502B6
:10539C001421FBF725F9012030700C20FCF734FCAC
:1053AC0008B9102070BD002101600471856071681E
:1053BC0011B9706004E011460A68002AFBD108603C
:1053CC00002070BD0192012200920322FBF761F9CB
:1053DC0009B000BD00B589B000F007F80A9A049234
:1053EC000022039201220192EEE78DF81C20120A92
:1053FC008DF81D20029307AA069200230222059223
:10540C0070470000416801F00302012A05D1C1F385
:10541C008001002908BF00F002B80120704710B5C8
:10542C0002681A4B117D5B6800E01B6893B11C7914
:10543C008C42FAD1996869B1928822B1032A11D0B1
:10544C00062A13D01FE04268C2F3C00242B9C07AE8
:10545C0010B118E0012010BD0868010018BF80478A
:10546C00002411E000F014F804460DE0426800241A
:10547C00C2F3C00242B9C07A022804D889690A0072
:10548C0002D0884700E00124204610BD5C2A002091
:10549C001CB504466068C0F3C0000028E07A42D115
:1054AC0030B94968080047D000F048F8884743E015
:1054BC0001281FD10020ADF80400002120680091C4
:1054CC0001AB8188007D0022FBF73AFEBDF8040099
:1054DC00002831D02068A17ABDF804200091012366
:1054EC00811D007DFFF776FF00210320FFF73AFEB8
:1054FC00FF2016BD022806D1896808001CD0E06880
:10550C000078884718E003280ED1C868A0B1E0687D
:10551C0000788DF80000E06840788DF8010000A854
:10552C00C968884708E008B1012016BD4969080020
:10553C0002D000F003F88847002016BD2068801DBB
:10554C000090E0680278407802EB0020ADF804008F
:10555C0000A87047FF2212EAD05C1DBF12EAD1539B
:10556C00944593422BE09C44D30780EA01021A40F5
:10557C0043EA002043EA0121A1FB0030410038BF7F
:10558C0040007CF17F010BDBFE294ADA5B0842EA22
:10559C00C15153EA006373F1004C51EB102070477A
:1055AC00D1F1080CDCF120012FDB5B0810FA01F1C2
:1055BC000B4373F1004120FA0CF0504170479445B5
:1055CC001CBF02EAD153934280EA010202F000426E
:1055DC001DD0400019D0490017D05BB9634514D0D9
:1055EC000902B1FA81F39940BCEB030CC00140F005
:1055FC000040C1E70002B0FA80FC10FA0CF0B3EBEB
:10560C000C0CC90141F00041B6E710007047400096
:10561C000AD0490008D010F1807F94BF11F1807F2F
:10562C0002E042F0FF407047D04370474100090E42
:10563C007F3915D4D1F11F0114D4400007D2C00119
:10564C0040F00040C84048BF6FF000407047C001B8
:10565C0040F00040C8404CBF4FF000404042704703
:10566C000020704700424FF0004058BFC0437047C5
:10567C0001680968084738B50E4C206810F1010F15
:10568C000FD1002020600C4D05E089684019884737
:10569C002068401C20600C21206848434159002997
:1056AC00F3D131BD044A0C2303FB00200268D268FD
:1056BC001047000024080020A48700001021FAF7EE
:1056CC00B7BC02681269104701B513460A4601219E
:1056DC0000A8FFF75BFA02BD38B50E4B1870581CCA
:1056EC00002404E011F8015B00F8015B641CE4B2D7
:1056FC009442F7D3511CBDE83440C9B21846FFF7A9
:10570C0033BACC2202E0491EC9B20A540029FAD19C
:10571C00704700007C290020002800BF0AD0B0FA96
:10572C0080F18840D1F19D01C905020672F1004259
:10573C0041EB102070470000DFF800F03DC1011074
:10574C00DFF800F029AF011090FAA0F0B0FA80F069
:10575C00704780B5DFF870030068FFF7F5FFDFF8DE
:10576C006C230121814011600121DFF86423116059
:10577C00DFF860130A6890420BD201EB80014A6893
:10578C003AB11368190004D0C1B21046BDE8044008
:10579C00184701BDF8B50D00ECB244BF85F02045AB
:1057AC0085F4C045A10001F1804101F5012100EA19
:1057BC0005060A68DFF8207385EA020382433E403F
:1057CC00034032431B0E00F4E02603F00103B6F550
:1057DC00E02F02D1D30105D411E010F4E02F08BF63
:1057EC00002B0CD002F4E023B3F5A02F04D0B3F5BA
:1057FC00C02F04D1052300E0062363F312420A6094
:10580C00410205D5A90DDFF8D42201F00101115593
:10581C00000211D5FEF78AF80123DFF8C4120A68DA
:10582C00A3402C024CBF1C4600249A4322430A601E
:10583C00BDE8F240FEF77EB8F1BD002948BF00215B
:10584C00800000F1804000F5012001F03F0102686A
:10585C00920941EA8211016070472DE9F0438046BC
:10586C00DFF88002DFF86C52DFF87C6297B00078CA
:10587C00DFF878020068C0F34601296019B1FF22F5
:10588C003046FCF74FFD0027002405E08C55012223
:10589C0002FA00F00743641C58F82400C1B2FF2937
:1058AC0004D02A689142F1D3022052E00920FCF77F
:1058BC002BFFC5F880800823242200210DA8FFF7B8
:1058CC0043F901208DF84C000DAA012105F1A0002F
:1058DC00FFF73EF90024DFF818920CE04846FFF77A
:1058EC0059FF4FF0FF31E0B2FFF7A7FF05EB840142
:1058FC0000204860641C286884420AD227FA04F00D
:10590C00C00747BFA05D58F82010E0B240F4C0417A
:10591C00E4E708233022002101A8FFF70DFF002047
:10592C00009001ABDFF8CC21102105F18400FFF7CA
:10593C0007FFDFF8C401016821F47C5141F40051E8
:10594C0001600120DFF8B4110860DFF8B4110860C1
:10595C00002017B0BDE8F0832DE9F0415D4E044600
:10596C000D4606F1A00800F032F800273DB90020E2
:10597C0020606060A06000271DB31EE07F1C15F83E
:10598C002700FF28F3D03168884204D206EB800050
:10599C0040680028F2D0002413E006EB80010122BD
:1059AC004C6002FA00F0616808436060204655F8CC
:1059BC0027204F4900F061F87F1C15F82700FF28BD
:1059CC00EBD14046FEF7D6FA2046BDE8F0814FF009
:1059DC00FF314046FFF7C4B810B50C46F0B1416832
:1059EC0021FA04F2D20719D50122A2409143416059
:1059FC000020384901EB840250603B48225C3C4853
:105A0C00FF2A0EBF44F02041D1F8801051F822102B
:105A1C00FFF7C0FE4FF0FF31204651E0022010BDD1
:105A2C0010B5044605E0FFF78FFEC1B22046FFF724
:105A3C00D3FF60680028F6D110BD3249096821FAFD
:105A4C0000F000F00100704710B5224B1C68A14219
:105A5C0004D203EB81035B68834201D0022010BDAA
:105A6C00100018BF01201D4A5054002010BD10B169
:105A7C000160002070470220704738B5154C25682E
:105A8C000B461146CAB2AA4204D204EB82025268F7
:105A9C00824201D0022032BD1846FFF77BFE002067
:105AAC0032BD0B4610B511460A4A1468A34204D203
:105ABC0002EB83025268824201D0022010BD1846CC
:105ACC00FFF7BBFE002010BDE0200240E02002608A
:105ADC0080E200E0C8260020007F077F0020024003
:105AEC00D02002407B2A00209C29002080120840F4
:105AFC00007FC7675F570000003009400C40094029
:105B0C0008000940C0200240DFF800F0ADB50110DC
:105B1C000FF2310101600FF2611141600FF295112A
:105B2C0081600FF2C911C1600FF2492101610FF2BE
:105B3C00A52141610FF2113181610FF20121C16187
:105B4C007047000070B5DFF8644BA078E070032854
:105B5C008EB040F08E800020E070A07008232422CC
:105B6C00002104A8FEF7F0FF03208DF82800002286
:105B7C0004A90120FFF7C8FF0025A06025701D2691
:105B8C0000AB04220021304600F0E7FC9DF8000039
:105B9C006178A5281DD19DF80120FF2A23D09DF8FE
:105BAC00030096281FD1207810B9267062701DE072
:105BBC008A4204D2FE2908D0012A14D105E0914270
:105BCC0003D2012908BFFE2A0DD000F00FFD26706C
:105BDC0003E0242805D1354641B99DF801006070D9
:105BEC0004E0B72802D0304600F000FD761C1F2ED2
:105BFC00C6D3207888B925B91D2000F005FB0420F8
:105C0C0014E025704FF48051284600F01DFBA08055
:105C1C000021284600F06EFB09E015B1284600F083
:105C2C00E5FC20784FF4805100F00EFBA08001A819
:105C3C000FF68C2500900C23D5E90001002200F012
:105C4C0099F80A280AD101A8002100220B460EC09F
:105C5C00A18840F6EF70401AADF80A0001ABBDF810
:105C6C000800401CADF808000C22D5E9000100F03A
:105C7C00B1F8E0780EB070BD70B5DFF8305A04465C
:105C8C00A86800F073F8AE7876B9B5F90400C0F5E1
:105C9C00805000B2A04200DB2CB92878002100F023
:105CAC0029FBEE7800E00426A868FEF763F930467D
:105CBC0070BD00002DE9FF41DFF8F07904460D4678
:105CCC00B8681646984600F051F800ABB2B200F036
:105CDC0049F804460A2C05D1414600A800F02AF9DF
:105CEC00044601E004B90124B86867E033B585B017
:105CFC009DF8140008B909201DE0DFF8B049A06830
:105D0C0000F034F8DDE9050100AB002200F0C4F826
:105D1C0005000CD1BDF80A0000F066FA009AA188C3
:105D2C00207800F0B2FA0128B4BFE5780225A0680B
:105D3C00FEF720F9284607B030BD00007FB500F013
:105D4C0043F800F013F800AB002200F00BF8002829
:105D5C00B06814BF0024BDF80C40FEF70BF92046C8
:105D6C0004B070BD2046294696E01F464FF0FF3127
:105D7C00FEF7F6BE2DE9FF4100F026F89046FFF73E
:105D8C00F4FF00ABBAB2FFF7EDFF040014D1BDF87D
:105D9C000C00BDF80A20111A414489B2BFB27B181D
:105DAC009A4205DB0A9B30783A4600F0D6FB03E0BA
:105DBC00B84234BF05240624D6F80800FEF7DAF8FA
:105DCC00204604B0BDE8F081DFF8E06804460D46DB
:105DDC00B06870472DE9F043DFF8D05885B0044621
:105DEC008846A86816469946FFF7C0FF00ABB2B2CA
:105DFC002046414600F050F8002704000BD1BDF8B6
:105E0C000C00B6B2B04219D14B463246002100A864
:105E1C0000F0B3F804460A2C09D1494600A800F05A
:105E2C0089F804461FB1384600F0DEF9EC78A86812
:105E3C00FEF7A0F8204605B0BDE8F083BDF80A7067
:105E4C00ADF80C60E9E700002DE9FF41DFF85C5884
:105E5C0004468846A8681646FFF787FF00ABBAB21F
:105E6C002046414600F018F8040013D1BDF80A0092
:105E7C00BDF80C10411A711889B2BFB2791888425A
:105E8C0007DB0A9B3A46B1B200A800F076F804464C
:105E9C0000E00624A86891E72DE9F34394B2B4F529
:105EAC00806F81B01D46A8BF052041DA9DF8040023
:105EBC004028A8BF09203BDABDF80660B6F5806F14
:105ECC00A8BF072034DABDF80880B8F5806FA8BFEA
:105EDC0008202DDADFF8D477BB78032B08BF03201A
:105EEC0026D0B10500F03F00890D41EA00300023B7
:105EFC004FEA8851FB70890D41EA0039B98838782E
:105F0C004A4600F0C2F901280CDA0020AC81688105
:105F1C00C5F80090A5F80480EE809DF80400287266
:105F2C000A2005E081B238782A4600F028F9F87882
:105F3C00BDE8FE83F0B50446DFF87077A089461DF6
:105F4C00B888B6B23018B0F5805F83B00D4609DD65
:105F5C003878002100F0CEF9B04203DAF87858B95D
:105F6C000520FEBD01950023A08939780090002200
:105F7C00204600F06DF8F878FEBD2DE9F24F07468B
:105F8C0088B07889DFF82467ADF80A009346B989A0
:105F9C00401AADF808001D46BDF80800BDF82010E9
:105FAC000818ADF80000A946BDF800A0D84600249A
:105FBC0002E0012409F101094046A0F1010880B278
:105FCC0068B130781FFA8AF100F0C4FA99F8001021
:105FDC0048400AF1010AEDD00842EAD002240CB97B
:105FEC00002032E0012C07D1BDF8001030782B4690
:105FFC005A4600F0C5FA27E0B989B088491D89B224
:10600C000818B0F5805F0FDCBDF82030BDF8082013
:10601C0031780195CDF800B0384600F019F8BDF88C
:10602C000A0000F0E1F80FE0BDF80800ADF8100030
:10603C000397ADF814B0069503A9BDF82000ADF890
:10604C001200307800F056F9F07809B0BDE8F08F06
:10605C002DE9FE4F05468846A889DFF85066401D9D
:10606C0080B2029002A9B08809880918B1F5805F46
:10607C0091461C4661DC297A01F03F018DF8001035
:10608C00E98889088DF8011000A9AA88EB88120903
:10609C0002F03F0242EA83128A70AA89AB88920905
:1060AC0002F00F0242EA0312CA70AA8992000A7126
:1060BC0000AAA9890F18B9B2404600F042F8DDF8E1
:1060CC0034A0BAF1000F21D0B6F804B03CB123468D
:1060DC005A464946404600F01AFAA344A1440C9C87
:1060EC00534622461FFA8BF1404600F049FAA88924
:1060FC00B18804EB0B02801A0B189BB233B104EB82
:10610C00090192B289B2404600F001FA9DF80000F4
:10611C0000F0BF008DF800000246B9B2404600F016
:10612C0029FA391D89B2404600F014FAFF2806D02E
:10613C00B08802990818B08001E00520F070BDE825
:10614C00F78FF8B516460446307840F0C000307032
:10615C000D46307940F0020030710427BA5D791990
:10616C0089B200F06FF87F1EF8D5307900F0FD028F
:10617C0032712046291DBDE8F84089B2FAE130B5EC
:10618C0083B014460D4600AB052200F0E6F900A8DA
:10619C006581017901F0030161720279C17892087D
:1061AC0001F00F0342EA8312A28109098078637A15
:1061BC0000F03F0241EA0211A18080099DF8012004
:1061CC0040EA8200E0809DF8002002F03F0222723B
:1061DC0040EA02309DF8005005F0C0052B43637275
:1061EC0041EA0030206037BD38B50446DFF8BC0406
:1061FC0005782146284600F0ADF900F07F022146D3
:10620C002846BDE83840B5E170B5DFF8A054044627
:10621C006878FE28B4BF461C01269622032100F0A4
:10622C0011F80122022100F00DF8F2B2012100F068
:10623C0009F8A522002100F005F8E87808B92C70BF
:10624C006E7070BD204695E138B505460C46A4B27B
:10625C00042C0AD3241F00AB0422A1B2284600F060
:10626C007CF9009810F1010FF1D001200121009A66
:10627C00D2B2FF2A009A18BF0846491C120A0529F7
:10628C000092F4DB001980B232BDF0B585B0054642
:10629C000E461746002407E0711E89B22846FFF708
:1062AC00D3FF0646641CA4B2B6B2092E1ED3761FC9
:1062BC0000AAB1B22846FFF762FF00999DF80900C9
:1062CC008F4204BF00F0C001802901D130B20FE031
:1062DC008007E1D4BDF80C00B6B2B04238BF361A14
:1062EC00E0D3DFF8C8030521C1708170604200B2B1
:1062FC0005B0F0BD2DE9F34F8FB04FF0000BDFF878
:10630C00AC531098D846ADF8088085F80380002867
:10631C000EBF4FF0FF3000680068059044469DF8B2
:10632C003C001D280CBF4FF01E094FF01D094846BC
:10633C0000F05CF99DF83C002422002100F01AF9D1
:10634C00A888ADF80200152705200990AE8805E055
:10635C009DF83C003146FFF777FF06460BF1010034
:10636C0080B208900998B04280F28480E8780028C6
:10637C0040F0BF80761FB6B29DF83C000AAA3146A9
:10638C00FFF7FDFEBDF834000390401D80B2049071
:10639C000398301AADF800009DF8310041065BD42B
:1063AC00000660D50A98059988425CD00246B9B2BD
:1063BC004846FFF76AFF012855DABCB9039A9DF8E5
:1063CC003C00711E92B289B200F045F970B9BDF86B
:1063DC000000ADF802000A98B0F5805F43D1BDF81B
:1063EC000200ADF808004FF0040A07E004983946A3
:1063FC00C7191FFA81FABAF1000F34D00398504430
:10640C00ADF8040006AB9DF83C000522314600F0C7
:10641C00A4F8BDF8041006AA4846FFF792FE44B152
:10642C00049BBDF800109BB25246484600F06FF832
:10643C0003E008F101001FFA80F89DF81800DDF860
:10644C0020B0BDF8041000F0BF008DF81800024613
:10645C00484600F08FF806E080073FF579AF04A8B6
:10646C000088864202DBBDF8006077E70520E87003
:10647C00A8703EE0641CBDF802000990E4B2022C46
:10648C00FFF664AF059810F1010F12D0AC8810988C
:10649C00AF804946C0680190109800890090109810
:1064AC00C38882880068FFF7D3FDAF88AC80DDF825
:1064BC0020B0BDF80800B8B101469DF83C0003AB14
:1064CC000C2200F04AF80398ADF814B0401C03906D
:1064DC00ADF81680C7F58050ADF8120003AB0C2256
:1064EC000421484600F04CF84846FFF78DFEE8784A
:1064FC0010B14FF0FF3007E09DF83C00AF8000F08A
:10650C0075F8C7F5805000B211B0BDE8F08F2DE9D9
:10651C00F04383B081460D4616461F46DFF88C814A
:10652C000FE098F8000000AB2246A9B200F015F875
:10653C0000AB2246B1B2484600F022F8A619651904
:10654C003F1BBFB227B1082FB4BF3C460824E8E775
:10655C00BDE8F7830003085C704701EB003003E0F3
:10656C0010F8011B03F8011B11464A1E89B20029C1
:10657C00F6D1704704B500AB012200F001F801BD63
:10658C002DE9F041494E0746F07882B08846144612
:10659C001D4648BB4FF4C07000F096F810B3444849
:1065AC000068804708EB0737804600A800F061F8C8
:1065BC0022463946284600F0B4F8009800F070F8EE
:1065CC003C490968404688472046441E80B258B171
:1065DC0015F8010B17F8011B8842F5D00220F0705A
:1065EC00B07001E00B20F070BDE8F381F8B5054602
:1065FC000021FFF7AFFFB72807D140F6FC7240F639
:10660C00FF71284600F027F820BB4FF4C07000F053
:10661C005BF8264CE0B1264800688047064600A887
:10662C0000F027F8280300F061F80746009800F006
:10663C0037F820490968304688472FB9B72200211E
:10664C002846FFF797FFF1BD0220E070A070F1BD66
:10665C000B20E070F1BD01EB003011464A1E89B2EF
:10666C0029B110F80119FF29F7D00020704701203B
:10667C00704770B5104C114D216889680646284644
:10668C00884700F0030030600021226852682846D9
:10669C00904721688968284688470028F9D170BD41
:1066AC00054A12685268014604481047A8070020A2
:1066BC009C070020A0070020D801001000400340D8
:1066CC00000001000000000007490A6822B1896A35
:1066DC00814201D2002070470120704702480321FB
:1066EC0001604160704700000050094030B599B01E
:1066FC000446274DFDF7FCFB03280DDA62222549E1
:10670C0000A8FBF7E3FD2448006829684B6923497E
:10671C00C0F30722204631E02968496920468847A2
:10672C0031E0F0B59DB004460D461646184FFDF706
:10673C00DFFB03280BDA6622194902A8FBF7C6FD1A
:10674C001548164B00683968896901910BE03B6864
:10675C009B693246294620469847FFE7114A00219B
:10676C0011601DB0F0BDC0F30720009032462046EA
:10677C0029460DF10904A0471DB0F0BD0DF101042F
:10678C00A04719B030BD074A0021116019B030BDC7
:10679C00A8010010E886000098110050000003408A
:1067AC008086000084046042DFF800F0D9C101103B
:1067BC00DFF800F019AE0110DFF800F0E5C10110B0
:1067CC00DFF800F085C20110DFF800F081C2011083
:1067DC00DFF800F055C10110DFF800F043C20110E2
:1067EC00DFF800F079AB0110DFF800F0EDB3011029
:1067FC0020B108233C220021FFF7D6BF704780B59B
:10680C00FBF7B2FDADF80000FDF790F8ADF8020013
:10681C00009802BD01B5BDF80200FDF78BF8BDF87C
:10682C000000BDE80240FBF7A3BD38B5DFF86048B7
:10683C00DFF860580020A4F8FC0FE820208040F618
:10684C001470A4F8E80004F1E8006860002000F07F
:10685C0003F8A8606C6031BDF8B500240025061D56
:10686C0016F003001CBF311D0E1AFFF7C8FFDFF82E
:10687C002418B6B20860112EB4BF4F688F683988DF
:10688C000B0403D581F40041002519E0A5B1238840
:10689C003A88134423809BB2B34211D3274619463E
:1068AC00B7B1891B89B20429A7BFF15346F4004143
:1068BC00398841F4004109E0B142F1DA01253C4646
:1068CC00CF1939880029DBD1002701E027F8041BF8
:1068DC00FFF7A0FF3846F2BD10B50446FFF78FFF57
:1068EC00DFF8B017221F086013885B045B0C138061
:1068FC004B689A4238BF4A60BDE810408AE738B509
:10690C000446FFF77CFF00210C23DFF88C2703FBE8
:10691C000125EA6B4AB1944204D1FFF77BFF05F1E4
:10692C003C0032BD491C0229EFD3FFF773FF002056
:10693C0032BD70B50546FFF762FF044600200C22FD
:10694C00DFF8541702FB001101F13C06316851B914
:10695C000020B06035600022FFF7D6F8706020B9D7
:10696C0000F0ECFC01E08D4204D12046FFF752FF11
:10697C00304670BD401C0228E2D32046FFF74AFF88
:10698C00002070BD38B50446FFF739FF0025DFF84D
:10699C0008170C2202FB0512128842B1944203D153
:1069AC00FFF738FFA8B232BD6D1C052DF1D3FFF7F0
:1069BC0031FFFF2032BD10B504462088FFF7E2FFFF
:1069CC00FF2800D176E1DFF8D0160C2202FB001074
:1069DC008168080002D16FF0010010BD2046BDE8AF
:1069EC001040084702460FF294701047DFF8A806D3
:1069FC000021C16341648164016500220C2303FB07
:106A0C000103491C05291A80F8D3082101800FF2D3
:106A1C005571816009E770B590B0FBF7A5FC044691
:106A2C0000A8FFF7E5FE0320069000224FF4A060BB
:106A3C00089000A94DF201000490DFF86006059063
:106A4C00DFF85C06FFF7B4FE050008BF00F076FC2B
:106A5C00FFF7D5FE06462846FFF76BFF08B900F096
:106A6C006DFC3046FFF7D6FE2046FBF781FC10B0DC
:106A7C0070BD70B500F0F7F8FFF75BFF0546FFF748
:106A8C00BEFE0646A1880020DFF80C260C2303FB73
:106A9C000022138843B911805560A1689160A081D0
:106AAC0068682061304669E7994205D13046FFF7A6
:106ABC00B1FE6FF0020070BD401C0528E4D300F05D
:106ACC003DFC3046FFF7A6FE6FF0030070BDF8B535
:106ADC0000F0C9F8FFF72DFF05006FF0030602D197
:106AEC0000F02CFC1DE0FFF78AFE07460020DFF8C3
:106AFC00A8150C2202FB00110A8852B94FF6F87245
:106B0C000A804D6000228A60A0806868A0603846C8
:106B1C008FE2401C0528EAD300F010FC3846FFF742
:106B2C0079FE3046F2BD10B5044660680C3080B278
:106B3C00FFF792FE00B91AE0616801810021016043
:106B4C00FF2181720C30A060002010BD80B5406820
:106B5C000C3811E080B27FE610B50446606880B254
:106B6C00FFF77AFEA06000B901E0002010BD6FF0C5
:106B7C00030010BD80B54068FFF7AEFE002002BDDB
:106B8C0038B504460D46FFF73AFE002145F80C1CBB
:106B9C00216811B9256006E0114651F80C2C002A29
:106BAC00FAD141F80C5CBDE8324033E62DE9F041F6
:106BBC0004466FF00206E068A0F10C05E088052899
:106BCC00BCBFA08805280BDAFFF719FEE188DFF8B7
:106BDC00C8840C2707FB0181496819B9FFF71AFE15
:106BEC00304617E0FFF716FEA0882871E088687120
:106BFC00207AA871E088E16807FB008040680830C3
:106C0C00FFF7BEFFE08807FB008040684068FDF797
:106C1C00B1F90020BDE8F08170B500F024F8FFF761
:106C2C006EFE10B96FF0040070BD00F10806FFF79E
:106C3C00E6FD3168002541B10D46A5F10C010A684D
:106C4C00326000220A60FF228A72FFF7E3FDA56022
:106C5C00A5F10C010DB9022070BD0879A08048790E
:106C6C00E080002070BD0446FFF7A6BD05280BDAB6
:106C7C00DFF824240C2303FB0020008800281CBF11
:106C8C004FF6F872904202D14FF0FF3070470880F7
:106C9C0000207047811D8088E8E710B50446E08825
:106CAC00FFF770FEFF2800D104E0E0802046BDE82D
:106CBC0010407BE74FF0FF3010BD3EB50446FFF7A8
:106CCC00ABFF050017D1A08800A9FFF7CFFF78B163
:106CDC00A06802900821ADF8041001A80321ADF8BA
:106CEC000610DFF8C013896888476FF005003EBDB9
:106CFC00BDF80000A08028463EBD10B5DFF8A823E3
:106D0C0012680C464FF47A71A1FB00010023FDF7C9
:106D1C0077F8002902D8B0F1004F02D36FF00200CF
:106D2C0010BD2060002010BD38B5FFF79CFFFFF7A9
:106D3C00E6FD0546FBF750FB002818BF012800D0E4
:106D4C0015B96FF0040032BD606840B9009000992D
:106D5C006868FDF705FF401E8041C00F32BD10F181
:106D6C00010F08BF4FF0FF30F0D000F03EF90028C3
:106D7C00EDD032BD80B54068FDF7FCF8002002BDB7
:106D8C0080B500F0DBFA002002BD80B54068FFF74B
:106D9C0017FD002002BD80B54068FFF715FD0020EF
:106DAC0002BD80B5FFF714FDFFF716FD002002BDF4
:106DBC0080B5FBF7D9FAFCF7B9FD002002BD80B510
:106DCC008168406800230022FFF70AFD20B900F01B
:106DDC00B5FA6FF0030002BD002002BD10B50446E9
:106DEC00FDF7E8FF6060002010BD01468868496827
:106DFC000847F0B507468BB0BC68AA4D6CBB0C209D
:106E0C00FFF72AFD04006FF003061ED0082324228E
:106E1C00002101A8FDF794FF0020ADF814000690A6
:106E2C00079400237968A14801AAFFF7DDFC2060D4
:106E3C0068B90820ADF800000C20ADF8020000A8DD
:106E4C00A96888472046FFF747FD304618E0F868E8
:106E5C0060603869A060BC600AE02868804706461C
:106E6C002068FBF789FA3869A06030466968884762
:106E7C0079682068FBF774FA2068FBF781FA002028
:106E8C000BB0F0BD10B5044682B0606800F0ADF8F0
:106E9C0020B9009860602046FFF7ABFF16BD80B5A7
:106EAC00406810B96FF0020002BD0068FBF764FA8D
:106EBC00002002BD7C49096841600020704750B534
:106ECC000446794802686FF00046A6FB02010023D5
:106EDC004FF47A72FCF794FF002902D8B0F1004FFE
:106EEC0000D330466060002050BD2DE9F04186B0E3
:106EFC000646FFF761FCFFF702FD044600200290F6
:106F0C000025FBF769FA002818BF012800D014B936
:106F1C006FF0040066E0706820B110F1010F03D12E
:106F2C004FF0FF30009004E000F05FF85FEA0008DB
:106F3C0057D1FDF73FFF00994FF001080F1800E003
:106F4C00009000996068FDF70BFE80B303A8FFF773
:106F5C0063FE5FEA00081AD1BDF8100001A9FFF723
:106F6C0085FE80B9059ABDF81210BDF80400B3680F
:106F7C00984740B1BDF80400B081BDF81200F08113
:106F8C000598306113E0059902A8FFF7F9FD009808
:106F9C006D1C10F1010F18BF00284FF00108D0D064
:106FAC00FDF708FF381A02D000998142C8D2029E20
:106FBC00FFF725FC04F1080756B1314600E01146F5
:106FCC0051F80C2C002AFAD13A6841F80C2C3E608E
:106FDC00FFF720FC002D03E06068FCF7CBFF6D1E73
:106FEC00FAD1404606B0BDE8F08100A985E6F8B5B7
:106FFC00FFF739FE0546FBF7EFF9002818BF01280B
:10700C006FF0040613D0FFF7FAFB0021224A0C2381
:10701C004B439F5A4FB19B185B681B68AB4201D125
:10702C00A18006E0491C0529F1D3FFF7F3FB30469C
:10703C00F2BDFFF7EFFB0020F2BDF8B50446FBF7FD
:10704C00CBF9002818BF012802D16FF00400F2BD63
:10705C00FFF7B2FB0546FFF7D2FBA7880E4A0021CB
:10706C000C234B439E5A6EB1BE4208D19918496805
:10707C000968A9420CBF01210021A160D9E7491C74
:10708C000529EDD3FFF7C6FB4FF0FF30F2BD000032
:10709C002C080020502A0020A028002038030020B3
:1070AC00F16900009C070020E0890000F76D0000EA
:1070BC0070B504463C20FFF7CFFB05006FF00306CC
:1070CC0011D0FFF795FB207AA86100226089286215
:1070DC002946E06828616068FFF76AFB0446284689
:1070EC00FFF7FAFB0CB9304670BD002070BD70B5CF
:1070FC0004462420FFF7B0FB05006FF0030613D005
:10710C00082324220021FDF71FFD2079012808BF48
:10711C002876A06800222946FEF7F6FCE060284697
:10712C00FFF7DAFBE06808B9304670BD002070BD8F
:10713C0010B5044682B0A06840B900900099606810
:10714C00FDF70EFD401E8041C00F16BD10F1010F62
:10715C0008BF4FF0FF30F0D0FFF747FF0028EDD00D
:10716C0016BD00004188282902D36FF0010070473A
:10717C000FF2140252F8211008470000C3690000F6
:10718C000B680000216800007F6A0000DB6A0000C9
:10719C00336B0000596B0000656B0000816B0000C5
:1071AC00B96B0000256C0000A76C0000C76C0000D8
:1071BC00356D0000816D00008D6D0000976D000035
:1071CC00A36D0000AF6D0000BD6D0000CB6D000025
:1071DC00E96D0000916E0000C16E0000CB6E0000E6
:1071EC00A16C00005F82000025830000F76E000098
:1071FC00FB6F0000FF6D0000AB6E0000BF82000053
:10720C00F78200000B8300004770000061830000D0
:10721C007D830000BD700000FB7000003D7100001C
:10722C00738300008B830000DFF800F025B10110A0
:10723C00DFF800F055C0011010B582B00820FBF744
:10724C00BFFAFFF74BFAFFF7D1FB00F0A4F800A848
:10725C0000F0B0F800AA0021002000F0AFF82D4992
:10726C00086008B9FDF778FC00F065FA2A4C2B4948
:10727C0008222046FBF71AF808220FF2C801204614
:10728C0000F07CFA18B9264806C806C4083C4FF42E
:10729C00ED70FFF719FA0028F9D004F10800FEF799
:1072AC0037FCA16808001CBF00208847FFF7B3FB20
:1072BC0004F10800FCF78BFE13BD30B5194C1A49CC
:1072CC008FB00220086001222368184D1B68012131
:1072DC00284698472268526801212846904714484E
:1072EC00FEF7BBFA08233C22002100A8FFF75CFA4A
:1072FC00104800F15001079100234FF48061089170
:10730C0000AA012106910C49FFF78EFFFFF790FFB1
:10731C000FB030BD7C2A002038030020C8FF0100CC
:10732C00F0120050D8010010D0210840004003405A
:10733C003C050020B01F00204572000080B5FCF712
:10734C00F5FAFEE7FFFFFFFFFFFFFFFF20B1082369
:10735C0024220021FDF7F8BB7047DFF89C120020B7
:10736C000860DFF89812086070470068DFF8902218
:10737C00032111604FF40001DFF888221160012114
:10738C00DFF884221170C1684978002904BF643089
:10739C00FCF7F0BD704700B589B000A8FFF7D6FF29
:1073AC0001208DF8180000AA01219848FDF7D0FBA8
:1073BC0009B000BD4FF0FF31016070472DE9F04777
:1073CC0005460C46DFF844828EB091464FF0FF31F3
:1073DC004046FDF7C5FB8E4800EBC5073D687E684F
:1073EC00FCF7A4FA2968002904D44FF0FF3A0129CC
:1073FC0007DB54B1FCF79EFA4046FCF7BBFD0020BE
:10740C0049E014B1C5F800A001E0491C2960FCF763
:10741C0091FA286802283ADAB9F1000F04BFCDF8C6
:10742C0004A00DF10409D9F8000068600823746801
:10743C003022002102A8FEF77FF900200090079768
:10744C0002AB744A214605F12C00FEF779F902A82B
:10745C00FFF77CFF01208DF8200002AA002105F126
:10746C006400FDF775FB02AA012105F14800FDF748
:10747C006FFBB068C0B2FBF747F9002000903B46A9
:10748C000FF21522042105F11800FBF729F94046EB
:10749C00FCF770FD38460EB0BDE8F08738B50568CE
:1074AC000C46FCF743FA2368297A01229A4091434F
:1074BC0029724FF0FF312160FCF73CFA002032BDFD
:1074CC002DE9F04705684FF0FF380F461446C146CA
:1074DC00FCF72CFA2A7A01268246092F0CD10721B7
:1074EC0006FA01F31A4204D143EA020028728946D3
:1074FC000AE0491EF4D515E006FA07F31A4211D139
:10750C0043EA02012972B94619F1010F0AD0494622
:10751C00204600F065F928B1287A06FA09F188436B
:10752C002872C1465046FCF705FA4846BDE8F0877C
:10753C0070B586B005680C464FF0FF3105F1480078
:10754C00FDF70EFB3049002008706070EC600420E1
:10755C00FBF736F9207810F0FE0104D0022921D077
:10756C0004292ED03BE000F081F8060012D100F087
:10757C003EF830B90420FBF739F800F053F814202A
:10758C000EE000F08AFA060004D12169E07800F0E0
:10759C0096FA06460420FBF729F800F043F830462B
:1075AC0006B070BD00F04DF80600F3D100F01FF8E6
:1075BC000028DFD000F04BFB0600EBD100F02CF8DC
:1075CC00E7E700F033F80600E4D100F010F80028EB
:1075DC00D0D000F0A7F90646FFF7BFFEDAE704208B
:1075EC00FBF704F800F01EF84FF0FF30D8E769689D
:1075FC0005F16400FDF7B4BA004702405045024063
:10760C008847024080E200E07A2A0020BC29002052
:10761C00C8870000777300002369E28AA168E078CC
:10762C0000F02CBB05F14800FCF7A4BC0121009133
:10763C0000F0010080F00103A278A168606800F0FE
:10764C0022B90121059100F00100217D049180F007
:10765C000100A1780391218B0291E1680191E18AEB
:10766C000091A3686268E17800F04FBA012105919E
:10767C0000F00100217D049180F00100A1780391BC
:10768C00218B0291E1680191E18A0091A368626803
:10769C00E17800F05FB900000968002008727047BB
:1076AC000146334800B54A8800688BB022B94A6855
:1076BC00097AFFF705FF3CE0012A05D1097A0A9106
:1076CC000AA9FFF7EBFE34E0022A0BD104228DF855
:1076DC001C200A7A8DF81E20CA6808920969099143
:1076EC0007A921E0032A08BF002202D0042A1ED1D8
:1076FC0002228DF8002091F820208DF802204A6893
:10770C008DF803208A680192CA6802924A69039232
:10771C00CA698DF814200A69ADF816208A69ADF88B
:10772C001820496A049100A9FFF702FF01E06FF0ED
:10773C0001000BB000BD10B586B00820ADF80400F8
:10774C000020ADF806008020ADF80800094C0A486E
:10775C002168039001A8884740B10820ADF80000CB
:10776C000C20ADF8020000A82168884706B010BDB7
:10777C007C2A0020A4070020AD7600000300002026
:10778C0013F0030F09D0521E22BF13F8010B11F88E
:10779C0001CBB0EB0C00F3D07047121F22BF53F893
:1077AC00040B51F804CB6045F7D0121D0AD200BA75
:1077BC009CFA8CFCB0EB0C0038BF6FF0000088BF5B
:1077CC0001207047521E22BF13F8010B11F801CB98
:1077DC00B0EB0C00F6D0521C08BF104670470000EE
:1077EC002DE9F84380468946DFF80455DFF8041587
:1077FC00012028602720096849698847DFF8F87458
:10780C00DFF8F844DFF8F864012038600320786072
:10781C002068400840002060206840F00100206093
:10782C000320B860B06880088000B060B06840F099
:10783C000100B060012000FA09F9DFF8C804C6F8AD
:10784C000090016841F001010160C0F80480102132
:10785C00C1600120FCF7D0FA3869C007F9D5386946
:10786C0010F0404F0BD10320B860002020607068EE
:10787C00484504D0002028600120BDE8F283002098
:10788C002860BDE8F2832DE9F8430D460446DFF885
:10789C006014DFF8646402200860914601203060B7
:1078AC00706098460320B060089848B1DFF84474C3
:1078BC003968096A27208847396809692720884769
:1078CC00DFF83814DFF8407402200860C7F8009025
:1078DC000120FCF791FA38680028F9D4306980004F
:1078EC0048BF01201CD4DFF82404B8F1000F14BFEA
:1078FC000C21082101601021416000218160DFF81A
:10790C000404016841F00101016044601021C16070
:10791C00016A41F00101016245621021C16200203F
:10792C00BDE8F28380B5DFF8E803006810F0030FC0
:10793C0001D00B2002BD8003DFF8B41300D599E110
:10794C00002008602720DFF8AC13096849698847D4
:10795C00002002BD2DE9F0470D468046DFF890135C
:10796C00DFF8906384B00320086091463168496960
:10797C001C4627208847DFF88073DFF88013DFF878
:10798C0088A30320B86001203860032078600220AF
:10799C0008600F98CAF800000120FCF72DFADAF8FD
:1079AC0000000028F8D43869800048BF012073D447
:1079BC001098411E8DF800104A460DF10101032369
:1079CC0012F801CB01F801CB5B1E12F801CB01F8C8
:1079DC0001CB12F801CB01F801CB12F801CB01F865
:1079EC0001CBEDD100A902280CBF99F80C20002284
:1079FC004A730022ADF80E20401EDFF81823009BBE
:107A0C001360019B5360029B9360C968D160A91EEF
:107A1C004908890541EAC040BF490843106100206C
:107A2C000C9D556190610E99D16191B1B548026878
:107A3C0042F0010202600D9A4260C1600120FCF725
:107A4C00DBF938698007F9D53869002848BF03206D
:107A5C0022D40320B860119838B13168096A272004
:107A6C00884731680969272088470120B8F1000F41
:107A7C00786010D0A348016841F001010160016AEF
:107A8C0041F0010101624460C560016A41F00101ED
:107A9C0001624462C5620020D6E080B59C48006853
:107AAC0010F0030F01D00B2002BD800300D5E0E0E5
:107ABC0090490968496927208847002002BD70B5A4
:107ACC000D4604468D4984B0002008608F4E01207D
:107ADC00FCF792F930684000F9D5306A0090706A72
:107AEC000190B06A0290F06A039034B100A810F8CB
:107AFC00011B05F8011B641EF9D18849032008609D
:107B0C0000207B49086004B070BD2DE9F0470C469D
:107B1C0081467749774E84B003200860154631685A
:107B2C004969984627208847734F7449DFF8D8A1D4
:107B3C000320B860012038600320786002200860C0
:107B4C000F98CAF800000120FCF756F9DAF800008B
:107B5C000028F8D43869800048BF012074D41098EC
:107B6C00411E8DF800102A460DF10101032312F875
:107B7C0001CB01F801CB5B1E12F801CB01F801CB54
:107B8C0012F801CB01F801CB12F801CB01F801CBB3
:107B9C00EDD100A902280CBF2A7B00224A730022D7
:107BAC00ADF80E20009B5B4A1360019B5360029B57
:107BBC009360C968D1600C990D1B022C32BF002454
:107BCC00A11E4C08401EA10541EAC040544908437F
:107BDC0010615561002090610E99D16191B14948B5
:107BEC00026842F0010202600D9A4260C1600120FD
:107BFC00FCF702F938698007F9D53869002848BFC5
:107C0C00032021D40320B860119838B13168096A77
:107C1C002720884731680969272088470120386068
:107C2C00B9F1000F78600ED03648016841F00101BF
:107C3C000160C0F80480C560016A41F00101016275
:107C4C00C0F82480C562002004B0BDE8F08780B580
:107C5C002F48006810F0030F01D00B2002BD8003E9
:107C6C0000D506E023490968496927208847002088
:107C7C0002BD1F4900200860032002BD2DE9F04120
:107C8C000D4604461D4984B000209846171B086019
:107C9C001E4E0120FCF7B0F830684000F9D5306A70
:107CAC000090706A0190B06A0290F06A039044B13F
:107CBC00404600A9224611F8013B00F8013B521E38
:107CCC00F9D11649032008607919002000E0401C06
:107CDC00A04207D218F8012B11F8013B9A42F6D0BA
:107CEC00042002E002490020086004B0BDE8F081E5
:107CFC00A02A0020B001001080470240004702403B
:107D0C0000440240004002400C44024050450240F6
:107D1C001840024040450240CC01042088470240F4
:107D2C00C8010420DFF800F061C20110DFF800F098
:107D3C00E1C20110DFF800F099B20110DFF800F099
:107D4C00DDB20110DFF800F0F9BF0110C0F8041823
:107D5C000220FCF751B800F5006042EA41010160D5
:107D6C007047C0F8081870470121C0F81C187047FC
:107D7C0070B586684468DFF814546868FDF750FEE7
:107D8C00316801F501610020086000213068C0F8FD
:107D9C00041800F50260016821F010010160B06860
:107DAC00C0B2FAF743FC04F11000FFF7BBFF04F17B
:107DBC002C00FFF7BBFF04F14800FFF7B7FF04F1FD
:107DCC008400FAF76BFFFBF7B1FD002184F89810E3
:107DDC002970BDE87040FBF7ADBD4FF0FF30704728
:107DEC0038B504466568287A696E6B68421E924104
:107DFC00D20F20469847A86FE96F88420CD100201B
:107E0C006866A867DFF88443207858B10420FAF735
:107E1C00EDFB0020207031BD8169A9672046BDE8CB
:107E2C00344006E131BDF8B50646D949B568096854
:107E3C00746828684968884707462868FFF794FFE4
:107E4C00FF20002F1CBF217AFF294BD1217A00295A
:107E5C004FD0012904D0022929D0FF294DD03FE071
:107E6C00E06E401EE06611D0A06E01782868FFF726
:107E7C0078FFA06E401CA066E06E022804D2606FF2
:107E8C0010B92072052127E0012125E0606F00B3B5
:107E9C00022020720122606E017C2868FFF75BFFD4
:107EAC00616F2868022934BF03210B2115E0286873
:107EBC00D0F80808216F0870206F401C2067606F95
:107ECC00411E616705D00229286834BF01210921B0
:107EDC0003E00020207204212868BDE8F44035E757
:107EEC002072F1BD2072F80603D428680421FFF734
:107EFC002DFF3046BDE8F24072E7F1BD406800212D
:107F0C0080F8981070472DE9F0470446DFF87C8222
:107F1C0094B0002088F800006668D4F808A00D46DC
:107F2C00FBF704FD96F8981011B1FBF703FD7EE00A
:107F3C00012186F89810FBF7FDFC1DB904A8FDF78C
:107F4C00BDFB04ADE868A168002807BF91F80C9050
:107F5C004F7B90F800904778B9F1FF0F18BFFF2FB7
:107F6C0065D08C4840EA09010191384301A9486069
:107F7C00FF20886008F10800FDF7EEFCC8F804004B
:107F8C00002854D00D224946FDF78BFDD8F804008B
:107F9C000E223946FDF785FD287830700823686875
:107FAC0070603022287AF060002108A8FDF7C4FB2D
:107FBC0000200D94009008ABDAF80410764A06F114
:107FCC001000FDF7BDFB08232422002108A8FCF7B4
:107FDC00BBFD01208DF8380008AA012106F12C0008
:107FEC00FCF7B6FD307840B908AA002106F148002C
:107FFC00FCF7AEFD0FF23D10706000203072B067E0
:10800C00F067DAF80800C0B2FAF77EFB204600F001
:10801C0095F80020009023460FF28112042106F1FE
:10802C008400FAF75DFB204614B0BDE8F087002011
:10803C00FAE738B54468856861660868A0664A68DE
:10804C00E26688682067C8686067616E28687AB1E4
:10805C00097C0022FFF77FFE01202072A06E411CDC
:10806C00A16601782868FFF77CFE286803210BE0E5
:10807C00097C0122FFF76FFE02202072616F2868D5
:10808C00022934BF03210B21BDE834405EE62DE903
:10809C00F8430D4681466868D9F80470D9F8088011
:1080AC000026002804BFE868002841D03878012851
:1080BC000ED1FBF73BFCB96F31B1F96F8D61FD67E8
:1080CC00FBF738FC012033E0BD67FD67FBF732FCA2
:1080DC002E4C207820B90420FAF772FB0120207076
:1080EC004FF0FF3107F12C00FCF73AFDD8F80400F3
:1080FC00FFF720FE29464846FFF79BFFD8F80400FF
:10810C00FFF71CFE387868B94FF0FF3107F14800D3
:10811C00FCF726FD207818B10420FAF767FA2670D0
:10812C00387A00B9012607F12C00FBF723FF304603
:10813C00BDE8F28340684830FBF71CBF30B583B014
:10814C004568846800A8FFF7FDFD0FF26000E96840
:10815C0050F8212002B101220D4B01991B682068B7
:10816C001B68D2B298472068FFF7FEFD206800F527
:10817C0002610A6842F010020A600121C0F804187A
:10818C000120216801F50161086037BD082A002033
:10819C00AC01001000200084337E000080B5042860
:1081AC0004BF0846FFF7CAFF002002BD0000000014
:1081BC000100000038B501280C4608D0022808D070
:1081CC00042802D0082806D007E0002507E0022585
:1081DC0005E0042503E0052501E0FFF7AFF8226870
:1081EC00214628469047002032BD38B5044601256B
:1081FC0004E005FA00F0C0B2FAF7E2FAB4FA84F03F
:10820C00202800D131BD00F01CF8F2DB401FC0B2B9
:10821C00FAF77AFAF2E738B50446012504E005FAD4
:10822C0000F0C0B2FAF7E2F9B4FA84F0202800D1D9
:10823C0031BD00F006F8F2DB401FC0B2FAF7F6F9D8
:10824C00F2E7C0F11F00C0B205FA00F14C4005285E
:10825C00704738B500793C4CA8B1FEF7D0FA05460A
:10826C002078FF2805D12846FEF7D4FA6FF00600D7
:10827C0032BD401C2070C0B2012804BF6068FFF7FB
:10828C00B4FF284611E0FEF7BAFA217829B92F4934
:10829C00096888476FF0070032BD491E2170C9B2CA
:1082AC0019B96068FFF7B7FF01E0FEF7B3FA0020D9
:1082BC0032BD70B50446606810F07F4F02D06FF08D
:1082CC00020070BDFEF79BFA1F4E0546307828B1B0
:1082DC007068FFF7A0FF6068FFF787FF6068706049
:1082EC002846FEF797FA002070BD80B5406810F064
:1082FC007F4F00D00DE0FFF778FF002002BD80B566
:10830C00406810F07F4F00D003E0FFF784FF00209F
:10831C0002BD6FF0020002BD1CB50446A168606886
:10832C0008601420FEF716FC019010B96FF00300E2
:10833C0016BD002000900F21A3680198044AFAF79B
:10834C00CFF9002016BD0000C0070020A0070020B8
:10835C00C181000010B50446FAF72AF900B10120DA
:10836C002071002010BD80B5FAF782FC002002BD00
:10837C0010B50446FAF716F96060002010BD10B570
:10838C0004466068FAF712F9A060002010BD0000E6
:10839C00DFF800F0F98C0110816807E002681168C1
:1083AC00536889185B18C36008320260C268914236
:1083BC00F4D04A1C82600878704738B504460D46E4
:1083CC00A068E168884212D120686168884208BFC1
:1083DC00FFF7DEFF2068227C016802B14944A160EE
:1083EC0042685218E260083091422060ECD0A068DC
:1083FC00401CA06000F8015D31BD2DE9F0418AB050
:10840C0000F1080105910268520801EBC2010691C6
:10841C000021079108910168490800EBC10108315E
:10842C000091017901F001018DF81010406800995C
:10843C00400801EBC000019000200290039084E002
:10844C0005A8FFF7A9FF044614F0030603D105A8FD
:10845C00FFF7A2FFC61C25090F2D1BD105A8FFF79E
:10846C009BFF00F10F0515E00598016808180599A8
:10847C0007904968081808900598083005900798E7
:10848C0008998842F0D0401C079010F8011D00A8F4
:10849C00FFF793FF761EF2D1002D51D005A8FFF700
:1084AC007BFF0646A00800F00300032804BF05A8C4
:1084BC00FFF772FFDDF800800299039F06EB0020A6
:1084CC0008E0A8F10808A8F10801801A0A684968B0
:1084DC008F18394658F8082C8A1A8242F1D30C1A94
:1084EC00AE1C2DD0BC4206D158F8044B58F8040BE6
:1084FC000719BC42F8D00298039914F8015B884222
:10850C0017D100980199884208BFFFF741FF0098E6
:10851C0000689DF81010029009B14844029000992F
:10852C0002984968009A091808328842039100920F
:10853C00E7D00298401C0290761E00F8015DD1D164
:10854C000298039988427FF47BAF0198009981428D
:10855C007FF476AF0AB0BDE8F08100007B756E6BDE
:10856C006E6F776E2D696E7374616E63652D6E61BF
:10857C006D657D007B656D7074792D696E737461AA
:10858C006E63652D6E616D657D0000007B7374619B
:10859C007469632D696E7374616E63652D6E616DA4
:1085AC00657D00008F3F00008F3F01008F3F020070
:1085BC008F3F0300903F00018F3F0101903F00026D
:1085CC00903F00038F3F01048F3F00058F1208047A
:1085DC008F3F00048F3F0006513F00007F3F01009A
:1085EC003F3F04003F3F02003F3F01007F3F02003E
:1085FC0030B4032303600323036210F1240313F04C
:10860C00704310F124042403240B53EA441343F065
:10861C00007353F0040301241C604AF6AA2342F2AF
:10862C006404235010F502531B685B1D102B04D3FC
:10863C000F2310F50254236006E010F502531B685B
:10864C005B1D10F50254236045F2AA5342F26404F8
:10865C0023500B6833F004030B60D46A43690B2579
:10866C0065F304034361086850F004000860D06AA5
:10867C0030BC704770B51C0014F502531D684AF6E7
:10868C00AA2342F264063351049B14F5025633605C
:10869C0045F2AA5342F264063351059B98474AF6B9
:1086AC00AA2142F26402115114F502510D6045F2F7
:1086BC00AA5142F26402115114F1240111F07041DB
:1086CC0014F124021203120B51EA421141F0007111
:1086DC0051F0040101220A6070BD000070B50C005D
:1086EC0014F502510D684AF6AA2142F26406315182
:1086FC0014F502510A6045F2AA5142F2640211517A
:10870C0098474AF6AA2142F26402115114F502511B
:10871C000D6045F2AA5142F26402115114F1240188
:10872C0011F0704114F124021203120B51EA4211A0
:10873C0041F0007151F0040101220A6070BD00008B
:10874C0000000000105465786173496E7374727583
:10875C006D656E7473000000105449303030312058
:10876C00202020202020202020000000103230303B
:10877C0036303833312020202020202020000000EB
:10878C00030004F79C3100000020004011000000A1
:10879C000700000005060000A089000084270020C7
:1087AC0094870000000000000000000000000000A2
:1087BC0000400240270000000B0000002028002091
:1087CC00BC87000000000000000000007FC8011002
:1087DC00C9BC011051B2011037C20110BDAD01105E
:1087EC00C1B101103525000071BA011069BB01102F
:1087FC0021C0011010B5074979441831064C7C444E
:10880C00163404E00A68081D511888470146A14235
:10881C00F8D110BD080000000C0100001B78FFFF10
:10882C0004000000EC01002008000000F001002012
:10883C0008000000F8010020782200002C0800201D
:10884C0000000000B7FBFFFF020000000200000068
:10885C00CC0100001B000000780100202C0000005F
:10886C009BFBFFFF0200000002000000CB01000098
:10887C001A000000A4010020240000007FFBFFFF71
:10888C000200000002000000C90100000C00000002
:10889C00C80100201C00000063FBFFFF0200000069
:1088AC0002000000380100001C0000000001002044
:1088BC004400000047FBFFFF020000000200000024
:1088CC00A6010000060000000002002004000000C9
:1088DC002BFBFFFF02000000020000001C01000047
:1088EC002400000044010020340000000FFBFFFFB7
:1088FC0002000000020000006501000009000000F9
:10890C00E401002008000000F3FAFFFF0200000061
:10891C0002000000580100001A02000008020020AA
:10892C0024060000DFF800F059C5011005480128A5
:10893C0008BFFBF77CB870470348012808BFFFF756
:10894C00F1BF70470100000001000000F7F7B7FB12
:10895C00002803D0FFF74EFFFFF7EEFF0020FEF7D5
:10896C00ACFCFBF707F800B581B0FFF7DFFFC046A2
:10897C00C04601B05DF804EBFFF7E8BF44F2E0003D
:10898C00C2F20000854648F67310C0F20000804722
:10899C00FEE700007D7D0000E77D0000097F000000
:1089AC00137F00009B800000D93A000045B50110F0
:1089BC0099A6011019B80110100000005000000019
:1089CC00080000009F2400006400000082000000EA
:1089DC00200000000A000000412D0000830100016E
:1089EC00A10CD0030407002000014320081420022E
:1089FC003401002004523C041200011007522900DB
:108A0C0020982A00209C04211013E03E0822020A20
:108A1C0010020020010106422618610452000110C8
:108A2C0007E0050020A4060020010CC30100011082
:108A3C000380040020C00422000150026CDC020000
:108A4C0001500388060020030C10036B3A0000A9A8
:108A5C0004F3010100012002D406002008120001D9
:108A6C000002E0050020000208000000F2200001D6
:108A7C00F30F980822F003F4060002040001300DF5
:108A8C000500EBFF3131252571716A6A6565E601D8
:108A9C0032DC0132D60132D10132CE0132CB01327D
:108AAC00C8015001C6C60142100B384035002D409C
:108ABC000140028460005D08102B00F80118A384AB
:108ACC00070083057EA40306E0EA23060100A388C1
:108ADC00020083880F00DC502B0043020005C38288
:108AEC00200063800100FF01F137CA500306000328
:108AFC0000000465DEC3454724F30D4D474421D4E3
:108B0C002002780400200412A004E0029C01002042
:108B1C0024439D240812C020F30180042043F93A19
:108B2C0008213C2144800410270000102760F73AEC
:108B3C00A124BF10022007C00404E54510030A0855
:108B4C0080800F046120100B034007C0074005C054
:108B5C00012000C01518100B0C08C0800D0080807F
:108B6C000E00C08014041003024000801608121777
:108B7C0008121804121904121B04121C04121D04EE
:108B8C0020021E000080642002940500200461CCA9
:108B9C0021037D490312020442241CF402030BC27C
:108BAC0001105CF10B1443C5A70883C13A1EC00425
:108BBC0058070020C5A734C3C5A708F11B066518C4
:108BCC00E530E3400294140201008006E01104F148
:108BDC00031C129C18210452A40483ED23241205B7
:108BEC0004E91543FC061312D408210452DC045288
:108BFC00E40452EC0452F40452FC044304070452FF
:108C0C000C04521404521C04522404522C0463FE0F
:108C1C00FF017300000BA2FF1681024F97302E0349
:108C2C003001FF00141012CCDD2D3905433018AC87
:108C3C0043800710D3102001111410030B6800009F
:108C4C00210423C3692A72035416E5BC4004413B3A
:108C5C000000A33B1012060412C898210452D00441
:108C6C0052D80452E00452E80452F00452F804437F
:108C7C00000804520804521004521804298821D404
:068C8C00000201010102DB
:020000040001F9
:10FFAC00100082FFFDFF54003AFFBFF3FFFFFFFF7D
:10FFBC00FFFFFFFFFFFFFFFFFFFFFFFFFFFFFFFF45
:10FFCC00FFFFFFFFFFFFFFFFFFFFFFFFFFFFFFC56F
:10FFDC00FFFFFFFFC5FFFFFFC5C5C5FFC5C5C5FFBB
:10FFEC0000000000FFFFFFFFFFFFFFFFFFFFFFFF11
:04FFFC00FFFFFFFF05
:0400000500008989E5
:00000001FF
